:100000000C94BE010C94E6010C94E6010C94E601FC
:100010000C94E6010C94E6010C94E6010C94E601C4
:100020000C94E6010C94E6010C94E6010C94E601B4
:100030000C94E6010C949C280C94E6010C94E601C7
:100040000C9433270C94E6010C94E6010C94E60121
:100050000C94E6010C94E6010C94E6010C94E60184
:100060000C947D270C94E60153746F7070656400E6
:100070002020202020202020202020202020202080
:100080000020202020202020202020202020202090
:10009000200025004572726F722052656164696E9E
:1000A000672046696C65004E6F7420545A5854613D
:1000B0007065005A5854617065214572726F7220E4
:1000C00052656164696E672046696C65004E6F74A5
:1000D0002041592046696C65005A584159454D5593
:1000E0004C4572726F722052656164696E6720467A
:1000F000696C65004E6F74205545462046696C65F5
:10010000005545462046696C6521545A5844554966
:100110004E4F9D0000035A58415946696C65202096
:100120001A0B00C000806E00000000250028002B84
:100130000000000000230026002900000000080045
:10014000020100000304070000000000000000009E
:10015000000000240027002A0001020408102040AB
:100160008001020408102001020408102004040485
:100170000404040404020202020202030303030350
:10018000035374617274696E672E2E004E6F205394
:10019000442043617264002E756566002E6179000B
:1001A0002E6F002E70002E746170004572726F7297
:1001B000204F70656E696E672046696C65005061FE
:1001C0007573656420004E6F2046696C6520536529
:1001D0006C656374656400506C6179696E6720209A
:1001E00020202020202020004F6666202A2020206A
:1001F0002020202020202020004F6E20202A202098
:10020000202020202020202020004772656D6C696E
:100210006E204C6F61646572004F6666202A202054
:10022000202020202020202020004F6E20202A2067
:100230002020202020202020202000506175736580
:100240002040205374617274004F6666202A20207B
:10025000202020202020202020004F6E20202A2037
:100260002020202020202020202000547572626F42
:1002700020426F6F737400333630302042617564F2
:10028000202A202020202000333630302042617583
:100290006400323430302042617564202A202020EE
:1002A0002020003234303020426175640031323019
:1002B000302042617564202A202020202000313225
:1002C0003030204261756400545358204261756497
:1002D0002052617465004772656D6C696E204C6FC9
:1002E00061646572005061757365204020537461CC
:1002F000727400547572626F20426F6F7374005491
:10030000535820426175642052617465004D656EDA
:10031000752053637265656E00506C6179696E6714
:10032000005061757365642000202020202020206B
:1003300020202020202020202000545A5844756975
:100340006E6F20312E31364C454400506C61796916
:100350006E6700506175736564200053656C65635A
:10036000742046696C652E2E00545A584475696E87
:100370006F20312E31364C454400C32811241FBE56
:10038000CFEFD8E0DEBFCDBF11E0A0E0B1E0EEECF2
:10039000F1E702C005900D92A637B107D9F727E023
:1003A000A6E7B1E001C01D92A031B207E1F711E06C
:1003B000CEEBD1E004C02197FE010E94CC36CD3BAC
:1003C000D107C9F70E9433290C94E5380C9400003A
:1003D000CF92DF92EF92FF928091A20190E0E091A4
:1003E0007302880F991FE80FF92FF11DEE0FFF1F01
:1003F000EA58FD4F208131811092A101809188033C
:1004000081111FC02115310509F4BFC037FF22C07B
:1004100081E08093A0013F7790918103911180E06A
:100420008093810381E080939F0190919E019130A0
:1004300011F436FD28C09091810391117EC0299856
:1004400029C02230310508F4A0C060E472E48FE0D6
:1004500090E03FC080919F01882331F080919F01FF
:10046000813051F080E0E1CF9091810381E09111E2
:1004700080E080938103F6CF8091A0018111F2CFBB
:1004800010929F01D2CF35FD56C0299820919C0132
:1004900030919D01813009F055C090918B039111ED
:1004A0004EC0109281038091A20190E0E09173020E
:1004B00021503109880F991FE80FF92FF11DEE0F18
:1004C000FF1FEA58FD4F318320836CED75E080E01B
:1004D00090E09B01AC012C5F3F4F4F4F5F4FA0EA74
:1004E000B0E00E9430356B017C0124E130E040E057
:1004F00050E00E9472352115310581E04807510511
:1005000008F05FC081E080937F0330937E032093E7
:100510007D0380917D0390917E039093870080936B
:10052000860080917F03806180938100FF90EF902F
:10053000DF90CF900895299AA9CF299AABCF8093C5
:100540008103B1CF8091A0018130D9F4A8EEB3E04E
:100550000E9494351092A0012091A2012F5F209358
:10056000A2012091A201213408F4B3CF1092A2017C
:100570002091730231E023272093730230930F01FF
:10058000A8CFB90190E080E0E7CF80918803811186
:100590005CCF8091A2018F5F8093A2018091A20124
:1005A000813450F01092A2018091730291E089276A
:1005B0008093730290930F0168EE73E080E090E007
:1005C00088CF2115310588E04807510560F482E0A5
:1005D00080937F03C701B60120EA30E040E050E09D
:1005E0000E94723592CF2115310580E448075105EC
:1005F00050F483E080937F03C701B60120E035E02B
:1006000040E050E0EDCF21153105410581E058076C
:1006100050F484E080937F03C701B60120E034E109
:1006200040E050E0DDCF85E080937F032115310568
:100630004105544038F4C701B60120E030E540E000
:1006400050E0CECF8FEF9FEF90937E0380937D039A
:1006500060CF08950895AF92BF92CF92DF92EF924C
:10066000FF920F931F93CF93DF936C017B018B015C
:10067000040F151FEB015E01AE18BF08C017D107AC
:1006800059F06991D601ED91FC910190F081E02D36
:10069000C6010995892B79F7C501DF91CF911F918B
:1006A0000F91FF90EF90DF90CF90BF90AF900895A3
:1006B000833081F028F4813099F08230A9F00895D8
:1006C0008730A9F08830C9F08430B1F4809180007F
:1006D0008F7D03C0809180008F7780938000089584
:1006E00084B58F7784BD089584B58F7DFBCF8091CD
:1006F000B0008F778093B00008958091B0008F7D17
:10070000F9CFCF93DF93282F30E0F901E55CFE4F5E
:100710008491F901E75AFE4FD491F901E359FE4F54
:10072000C491CC23A1F081110E945803EC2FF0E07A
:10073000EE0FFF1FEF5CFE4FA591B491EC91ED23FE
:1007400081E090E009F480E0DF91CF91089580E0AE
:1007500090E0FACF1F93CF93DF93282F30E0F90179
:10076000E55CFE4F8491F901E75AFE4FD491F901FF
:10077000E359FE4FC491CC23A9F0162F81110E949A
:100780005803EC2FF0E0EE0FFF1FE95DFE4FA5913F
:10079000B4918FB7F894EC91111108C0D095DE2375
:1007A000DC938FBFDF91CF911F910895DE2BF8CF9F
:1007B000CF93DF9390E0FC01E75AFE4F24918359D9
:1007C0009E4FFC0184918823D1F090E0880F991FFF
:1007D000FC01E15BFE4FA591B491FC01E95DFE4F88
:1007E000C591D491623071F49FB7F8943C91822FF7
:1007F000809583238C93E8812E2B28839FBFDF91E4
:10080000CF9108958FB7F894EC912E2B2C938FBF36
:10081000F6CF3FB7F8948091610290916202A09167
:100820006302B091640226B5A89B05C02F3F19F062
:100830000196A11DB11D3FBFBA2FA92F982F882760
:10084000BC01CD01620F711D811D911D42E0660F3B
:10085000771F881F991F4A95D1F708958F929F920D
:10086000AF92BF92CF92DF92EF92FF926B017C0129
:100870000E9409044B015C01C114D104E104F1049C
:10088000B9F00E940904681979098A099B09683E30
:1008900073408105910580F321E0C21AD108E10877
:1008A000F10888EE880E83E0981EA11CB11CE4CFED
:1008B000FF90EF90DF90CF90BF90AF909F908F9080
:1008C00008952FB7F89460915D0270915E02809157
:1008D0005F02909160022FBF089508952091EB016F
:1008E000260F3327331F21323105ECF420913402D7
:1008F000FC0190E080E0243069F082E00895A0914E
:10090000EB012191AC0145535E4FA40FB52FB11DF2
:100910002C930196861798F38091EB01680F6093F2
:10092000EB0180E0089581E008951092340281E0A7
:100930008093330210920E0261E082E10E94AA03CA
:1009400061E083E10E94AA03E9EBF0E080818E7F01
:10095000808380818D7F808388E48093B80085E4E4
:100960008093BC000895CF93DF9391E09093CA01E8
:100970008823B9F0C091B800D091BA008091BC0032
:100980008A7B8093BC0060E082E10E94AA0360E061
:1009900083E10E94AA030E949504D093BA00C093F9
:1009A000B800DF91CF9108950895E0916C02809195
:1009B0006B02E81730F4F0E0E655FE4F808190E0DE
:1009C00008958FEF9FEF089590916C0280916B02D4
:1009D0002FEF3FEF981748F4E92FF0E0E655FE4F70
:1009E000208130E09F5F90936C02C901089580914F
:1009F0006B0290916C02891B990B0895CF92DF9244
:100A0000EF92FF920F931F93CF93DF937C01CB0163
:100A10008A0120913A02222389F0EB016B01C40E76
:100A2000D51ECC15DD0569F06991D701ED91FC91DA
:100A30000190F081E02DC7010995F3CF642F0E944A
:100A40006E04C801DF91CF911F910F91FF90EF903D
:100A5000DF90CF900895CF93DF931F92CDB7DEB78D
:100A6000698320913A022223F9F020916902203211
:100A700058F021E030E0FC013383228390E080E0F5
:100A80000F90DF91CF91089580916A02E82FF0E0F6
:100A9000E55CFD4F998190838F5F80936A0280931C
:100AA000690281E090E0ECCF61E0CE0101960E9406
:100AB0006E04F7CFCF92DF92EF92FF920F931F93C6
:100AC000CF93DF93FC01C48121E020933A02C093CD
:100AD0005B0210926A02109269028385682B87E795
:100AE00094E00E942B05D0916902D13208F092C0A7
:100AF0000E9409046B017C0180913402811165C060
:100B000082E08093340281E0809333028FEF809300
:100B1000320210923102D0933002ABE3B2E0E0E156
:100B2000F2E080E0D81385C010920F0280910F028E
:100B3000CC0FC82BC0930F0280910E02813009F0B8
:100B40007CC010920E020E9409046B017C0180910E
:100B50000F028093BB008091360290913702A091E2
:100B60003802B0913902892B8A2B8B2B99F00E9485
:100B70000904009136021091370220913802309119
:100B800039026C197D098E099F0906171707280776
:100B90003907E0F18091BC0083FDD9CF85EC8093CB
:100BA000BC000E9409046B017C01809134028230F8
:100BB00009F445C0809132028F3F61F18091320289
:100BC000803241F18091320225C0809136029091AD
:100BD0003702A0913802B0913902892B8A2B8B2BD6
:100BE00009F48ACF0E94090400913602109137025D
:100BF00020913802309139026C197D098E099F09C4
:100C0000061717072807390708F076CF80913502B5
:100C10000E94B30410926A021092690210923A0282
:100C2000DF91CF911F910F91FF90EF90DF90CF90C8
:100C300008959D9191938F5F75CF85EEB0CF809190
:100C4000360290913702A0913802B0913902892B77
:100C50008A2B8B2B09F4A9CF0E940904009136023C
:100C60001091370220913802309139026C197D09B8
:100C70008E099F09061717072807390708F095CF2F
:100C8000C5CF0895CF93DF93EC01E981FA8190817C
:100C900081819CBD8DBDE981FA8160E082810E94E5
:100CA000AA0381E08B83DF91CF9108958EBD0DB4AF
:100CB00007FEFDCF08958FEF8EBD0DB407FEFDCF6B
:100CC0008EB508950F931F93CF93DF93EC010E948D
:100CD00061048B010E945B068F3F69F00E946104F2
:100CE000601B710BC617D707A8F780E0DF91CF9183
:100CF0001F910F91089581E0F9CFCF93DF93FC010D
:100D00002381222361F0EC010180F281E02D61E07A
:100D100082810E94AA038FEF0E9456061B82DF91F8
:100D2000CF910895DF92EF92FF920F931F93CF938D
:100D3000DF938C01C62FD22FF32EE42ED52EFC018B
:100D40008381811103C0C8010E944206CC2321F097
:100D50008CE291E00E9462068C2F80640E9456060D
:100D60008D2D0E9456068E2D0E9456068F2D0E94B4
:100D700056068D2F0E94560687E8C11101C085E9ED
:100D80000E9456060E945B06CBE00E945B06F801BB
:100D9000848387FF02C0C150C1F7DF91CF911F91BB
:100DA0000F91FF90EF90DF9008950F931F93CF93D3
:100DB000DF93EC0189018D81833039F089E0440FA4
:100DC000551F661F771F8A95D1F79A01AB0168E11D
:100DD000CE010E949206882319F082E3888339C0ED
:100DE0008EEF0E945606F80180818EBD8181329679
:100DF0001E5F0DB407FEFDCF8EBDE017F10711F0A9
:100E00008191F7CF0DB407FEFDCF8FEF0E945606FC
:100E10008FEF0E9456060E945B068C838F7185308F
:100E200099F480ED97E00E946206182F8AE511235D
:100E3000A9F220E030E0A9016DE0CE010E94920607
:100E4000882361F089E2CACF87E58883CE010E94BA
:100E50007D06CE010E947D0610E007C00E945B0661
:100E60008111F0CFCE010E947D06812FDF91CF91BD
:100E70001F910F910895EF92FF920F931F93CF93BD
:100E8000DF93EC0179018D81833039F089E0440FE3
:100E9000551F661F771F8A95D1F79A01AB0161E153
:100EA000CE010E949206882339F080E38883CE0128
:100EB0000E947D0680E037C00E9461048B010E9481
:100EC0005B068C838F3F69F40E946104601B710B89
:100ED000693E7340A0F385E58883CE010E947D06BC
:100EE000E6CF8E3F11F080E5F7CF8FEF8EBDF70193
:100EF000D701A150BE4F9FEF0DB407FEFDCF8EB5B9
:100F00009EBD8193AE17BF07B9F70DB407FEFDCFA5
:100F10008EB58C931C820E945B060E945B06CE01FC
:100F20000E947D0681E0DF91CF911F910F91FF908C
:100F3000EF900895EF92FF921F93CF93DF93FC0100
:100F4000208111E020FF14C0EC017C01F7E0EF0EDE
:100F5000F11C4B815C816D817E81E981FA81970171
:100F6000808191810E94D506182F811108C010E060
:100F7000812FDF91CF911F91FF90EF90089588818D
:100F800081FD04C088818E7F8883F2CFE981FA8158
:100F90004B815C816D817E8184859585A685B78531
:100FA000480F591F6A1F7B1F9701808191810E9402
:100FB000D5068111E7CFDBCFCF92DF92EF92FF9280
:100FC0001F93CF93DF93EC016A017B01122F8B817A
:100FD0009C81AD81BE818C159D05AE05BF05B1F02C
:100FE000CE010E949A0781110AC090E080E0DF9153
:100FF000CF911F91FF90EF90DF90CF90089512FF57
:101000000CC01882CB82DC82ED82FE821370888154
:10101000182B1883CE010796EACFE981FA819E0149
:10102000295F3F4FB701A601808191810E943B0754
:101030008111E7CFDACF8F929F92AF92BF92CF927A
:10104000DF92EF92FF920F931F931092B50441E04D
:1010500050E060E070E04093B8045093B9046093AE
:10106000BA047093BB0420EB34E03093D204209395
:10107000D1041092D0044FEF5FEFBA014093D30434
:101080005093D4046093D5047093D604882309F454
:1010900050C020E040E050E0BA0180ED94E00E94B2
:1010A000DC07009761F480E01F910F91FF90EF90B3
:1010B000DF90CF90BF90AF909F908F900895FC01EC
:1010C000E254FE4F20812F7771F78A539E4FFC0127
:1010D000C080D180E280F380C114D104E104F10426
:1010E00011F320E0B701A60180ED94E00E94DC0737
:1010F000FC01892BC1F2838594858115924099F674
:101100008089823081F686859785892B61F22585D5
:101110002093B2048FEF820F8093B30480E091E0BC
:10112000291769F08F5F893041F488E08093B40417
:10113000BACFC12CD12C7601D4CF990FF1CF8093A7
:10114000B4044689578970E060E04115510521F4E7
:1011500044A155A166A177A14093BC045093BD045E
:101160006093BE047093BF042685378546015701FE
:10117000820E931EA11CB11C8092C4049092C504DF
:10118000A092C604B092C704218932893093B70473
:101190002093B604440F551F661F771F480D591D35
:1011A0006A1D7B1D4093CC045093CD046093CE0404
:1011B0007093CF0421893289A5E0220F331FAA95AD
:1011C000E1F721503E4F232F33272695420F531F1F
:1011D000611D711D4093C0045093C1046093C2040B
:1011E0007093C3040389148930E020E001151105D0
:1011F00021F400A111A122A133A1C41AD50AE60A43
:10120000F70AC00ED11EE21EF31E04C0F694E79446
:10121000D794C7948A95D2F7D701C6010196A11D2C
:10122000B11D8093C8049093C904A093CA04B093DD
:10123000CB0485EFC8168FE0D806E104F10420F452
:101240008CE08093B5042FCF80E125EFC2162FEFFD
:10125000D206E104F10468F084A595A5A6A5B7A57A
:101260008093CC049093CD04A093CE04B093CF048C
:1012700080E28093B50481E017CF8F929F92AF9266
:10128000BF92CF92DF92EF92FF920F931F93423063
:1012900051056105710560F480E01F910F91FF9089
:1012A000EF90DF90CF90BF90AF909F908F90089578
:1012B000FC01C08CD18CE28CF38CC416D506E606FA
:1012C000F70650F3480159016A017B01858180329C
:1012D00041F584899589A689B78917E07695679540
:1012E000579547951A95D1F7480F591F6A1F7B1FCD
:1012F00023E0CF0180960E94DC07009769F2E89412
:10130000C7F8DD24EE24FF24CC0CDD1CCC0CDD1C46
:101310008C0D9D1DFC0180829182A282B38281E0AE
:10132000BCCF803109F0B8CF448955896689778967
:101330004D0D511D611D711D23E0CF0180960E944E
:10134000DC07009709F4A8CFDD24EE24FF24CC0CA1
:10135000DD1CC80ED91EF60111830083E0CFCF92A9
:10136000DF92EF92FF920F931F93CF93DF93423060
:1013700051056105710550F48FEFDF91CF911F91F9
:101380000F91FF90EF90DF90CF900895FC01C08CFB
:10139000D18CE28CF38CC416D506E606F70660F312
:1013A00089016A017B01EC0185818032B9F584896C
:1013B0009589A689B789E7E076956795579547950A
:1013C000EA95D1F7480F591F6A1F7B1F22E0CE0113
:1013D00080960E94DC07009779F2E894C7F8DD2434
:1013E000EE24FF24CC0CDD1CCC0CDD1C8C0D9D1DD3
:1013F000FC0180819181A281B381BF70488D598D9C
:101400006A8D7B8D481759076A077B0738F1F80109
:1014100080839183A283B38381E0AFCF803109F0D1
:10142000ABCF44895589668977894D0D511D611D62
:10143000711D22E0CF0180960E94DC07009709F41D
:101440009BCFDD24EE24FF24CC0CDD1CC80ED91E5E
:10145000F60180819181B0E0A0E0D0CF80E08DCF17
:101460000F931F93CF93DF938C01EB01FC01448911
:101470005589668977898681978120E080960E94C8
:10148000DC07009709F443C0F801A481B581AF706F
:10149000BB2725E0AA0FBB1F2A95E1F7A80FB91FAC
:1014A0001097A9F1AD0138E070E080E06EE2FA013A
:1014B0009191AF019032F1F0883039F49E01270FFD
:1014C000311DF90160837F5F30E18A01015011090C
:1014D000F80190812FEB290F2A3130F41C962C91C2
:1014E0001C97232309F0905E8E01070F111DF80150
:1014F00090837F5F8F5F8B30D1F6FE01E70FF11D88
:10150000108281E0DF91CF911F910F91089580E0CB
:10151000F9CFFC019C01255F3F4F80E080FB879560
:1015200087F99191890F2E173F07C1F70895CF933F
:10153000DF93FC012081211104C081E0DF91CF9174
:101540000895EC01828182FF39C0448955896689FA
:1015500077898681978121E080960E94DC07009739
:1015600029F489818160898380E0E8CFEC81FD8165
:10157000EF70FF2725E0EE0FFF1F2A95E1F7E80F38
:10158000F91F309771F38081853E59F3888183FF7D
:1015900008C0888D998DAA8DBB8D848F958FA68F5D
:1015A000B78F8C8D9D8D938F828F8C8D9D8DAE8D01
:1015B000BF8DB58BA48B8A818B7F8A838E819F811F
:1015C00080960E949A07882361F2B7CF4F925F926C
:1015D0006F927F928F929F92AF92BF92CF92DF9243
:1015E000EF92FF920F931F93CF93DF93EC014A0189
:1015F0005B014C845D846E847F84A881AA2309F4F6
:1016000086C0488959896A897B89481559056A05C0
:101610007B0569F081149104A104B10451F41C8686
:101620001D861E861F86888A998AAA8ABB8A81E0BF
:1016300073C0A3FF59C0088D198D2A8D3B8D0815E5
:1016400019052A053B0508F462C0EE81FF818481FB
:1016500090E009968A019B01015011092109310985
:10166000082E04C036952795179507950A94D2F74A
:1016700075016401B1E0CB1AD108E108F10804C09A
:10168000F694E794D794C7948A95D2F7C016D106FA
:10169000E206F30628F0452B462B472B09F052C0F3
:1016A000A6FF4BC0848D958DA68DB78D8C879D87A9
:1016B000AE87BF878E01045F1F4FC114D104E104C0
:1016C000F10409F4B0CF4C855D856E857F85980166
:1016D0008E819F810E94AF0991E0C91AD108E1086B
:1016E000F108181654F313C0A5FFAFCFEE81FF81A8
:1016F0008681978125E0880F991F2A95E1F7B0E050
:10170000A0E088159905AA05BB0508F08CCF4C868A
:101710005D866E867F8680E0DF91CF911F910F916D
:10172000FF90EF90DF90CF90BF90AF909F908F9001
:101730007F906F905F904F9008958C8D9D8DAE8DB2
:10174000BF8DB4CFC01AD10AE20AF30AB3CFCF9348
:10175000DF93EC010E94970A1882DF91CF910895E0
:101760003F924F925F926F927F928F929F92AF9231
:10177000BF92CF92DF92EF92FF920F931F93CF937E
:10178000DF9300D000D0CDB7DEB74C01FC018281E1
:1017900084608283A680B78044845584668477847D
:1017A000F501C084D184E284F384C414D504E60432
:1017B000F70410F011E003C07301620110E0FFEFC5
:1017C000CF1ADF0AEF0AFF0AF501808D918DA28DF5
:1017D000B38D8C159D05AE05BF0538F4111131C0D0
:1017E000C084D184E284F384E5CF4C145D046E049C
:1017F0007F0439F19E012F5F3F4FB701A601C5015C
:101800000E94AF0987FD1DC08823C9F289819A8192
:10181000AB81BC81892B8A2B8B2B89F6112329F074
:10182000F501C086D186E286F3860FEF1FEF2FEF1A
:101830003FE0B701A601C5010E943D09382E811184
:1018400018C0312C832D0F900F900F900F90DF91C7
:10185000CF911F910F91FF90EF90DF90CF90BF90AD
:10186000AF909F908F907F906F905F904F903F9040
:101870000895411451046104710431F4F401C486E3
:10188000D586E686F786DECF97018601B301A201F1
:10189000C5010E943D098111F1CFD3CF8091920102
:1018A00090918D039130B9F4813071F028E730E0E8
:1018B00030930E0120930D018823A1F080919201B5
:1018C000815080939201089584EF91E090930E01EE
:1018D00080930D01F3CF20EA30E0813049F782EAAE
:1018E00095E0F4CF80919A0187FF12C083E1809345
:1018F000920180919A01880F80939A0180919B01B7
:10190000815080939B0110920E0110920D01D6CF51
:1019100089E0EDCF809187019091880190930E012D
:1019200080930D018091850190918601019790939C
:10193000860180938501892B19F485E080938303C8
:10194000089580E18093810081E08093880380E99D
:1019500094E00E94A70B10928403109285031092CA
:101960008603109287031092950110927B031092C8
:101970009E010895BC0190E080E00E948C3420E03C
:1019800030E040E650E40E94103620E030E040E0D5
:101990005FE30E94A4350E948936CB010895049626
:1019A0000C94970A40E050E0BA010C94E60A90E0EB
:1019B00080E00895CF92DF92EF92FF920F931F93F2
:1019C000CF93DF93FC0180E2DF011D928A95E9F756
:1019D000EB01AE81BF81B783A68355834483CC8C52
:1019E000DD8CEE8CFF8CC086D186E286F3864F704C
:1019F0005527ED01A79695E0440F551F9A95E1F7FD
:101A0000BE01640F751FEB018B8583FD49C0CD01BD
:101A1000840F951FEC018AA987718083EB019B8558
:101A2000987111F488608083238381E08283939688
:101A30000D911D912D913C919697048B158B268BC2
:101A4000378BA40FB51FDB964D915C91DC9770E04E
:101A500060E0BA0155274427ED01CF5BDF4F0881D5
:101A6000198130E020E0402B512B622B732B448FE7
:101A7000558F668F778FAD5BBF4F8D919D910D9088
:101A8000BC91A02D808F918FA28FB38F81E0DF91C9
:101A9000CF911F910F91FF90EF90DF90CF9008951D
:101AA000108280E0F4CFFC01808181110FC080E2C0
:101AB000DF01982F1D929A95E9F777836683DB0102
:101AC00015969C91903129F0903211F080E00895A4
:101AD00080E4808381E082830895CF93C82F87EDCF
:101AE00096E00E94A70B60EB74E087ED96E00E9401
:101AF000530D882369F0CC2359F08091D706807765
:101B000049F087ED96E090937604809375048C2FCE
:101B1000CF91089580E0FCCFFC0101900020E9F70F
:101B20003197AF01481B590BBC0180E097E00C9442
:101B30002B032F923F924F925F926F927F928F92E0
:101B40009F92AF92BF92CF92DF92EF92FF920F934C
:101B50001F93CF93DF93EC015B014A01888183FFE0
:101B6000C5C08A8181FFC2C083FDB7C0A40170E0F7
:101B700060E088899989AA89BB8980959095A0950C
:101B8000B09584179507A607B70708F4AFC064019E
:101B90001E018CE0280E311C088919892A893B898D
:101BA000C114D10409F4E1C08E819F81B901A8015B
:101BB00029E076956795579547952A95D1F7DC01E9
:101BC0001396FC90F4221170F1101BC04C855D85BA
:101BD0006E857F850115110509F0F4C04115510589
:101BE0006105710509F488C091010E94AF0987FD64
:101BF0007DC0811106C0CE010E94B00B882309F47C
:101C000075C0EE81FF814C855D856E857F85425074
:101C1000510961097109848104C0440F551F661F71
:101C2000771F8A95D2F780899189A289B389840F19
:101C3000951FA61FB71FAC01BD014F0D511D611DA2
:101C4000711D0115110529F4C114B2E0DB0608F07D
:101C50006EC080E092E0801B910B76018C159D0593
:101C600008F47C010115110571F4488859886A88C7
:101C70007B88888D998DAA8DBB8D25E048165906E5
:101C80006A067B0608F421E0CF0180960E94DC07FB
:101C9000009761F1A701B501800F911F0E94C13823
:101CA0000E0D1F1D0115124039F48E819F81809603
:101CB0000E949A078823D1F088899989AA89BB89CB
:101CC0008E0D9F1DA11DB11D888B998BAA8BBB8B7F
:101CD000AE0CBF1CCE18DF085FCF488D598D6A8DC2
:101CE0007B8DCE010E94E60A811140CF89818160FF
:101CF00089838FEF9FEF4DC08C8D9D8DAE8DBF8DF5
:101D00000097A105B10571F4CE010E94B00B8823A4
:101D100069F38C859D85AE85BF858C8F9D8FAE8F39
:101D2000BF8F6FCF8C879D87AE87BF876ACF83A118
:101D300094A1A5A1B6A1481759076A077B0741F4EA
:101D400010A28FEF9FEFDC0183A394A3A5A3B6A3FA
:101D5000EE81FF819501808191810E94D5068823C3
:101D600029F2E12C82E0F82EA7CF888D998DAA8DDB
:101D7000BB8D80179107A207B30738F48A81088FBB
:101D8000198F2A8F3B8F84608A838A8187FD14C0D4
:101D9000C401DF91CF911F910F91FF90EF90DF90E1
:101DA000CF90BF90AF909F908F907F906F905F90FB
:101DB0004F903F902F900895CE010E94970A811175
:101DC000E7CF94CFFC014250510961097109848128
:101DD00004C0440F551F661F771F8A95D2F780896C
:101DE0009189A289B389480F591F6A1F7B1F31CF80
:101DF00004960C94990DCF93DF931F92CDB7DEB765
:101E0000698341E050E0BE016F5F7F4F04960E94FE
:101E1000990D0F90DF91CF9108954F925F926F923D
:101E20007F928F929F92AF92BF92CF92DF92EF926A
:101E3000FF920F931F93CF93DF93EC015B018A0115
:101E40008881882309F4C1C09A8190FFBEC083FFB6
:101E500016C0888D998DAA8DBB8D488959896A894C
:101E60007B89841B950BA60BB70BA80170E060E083
:101E7000481759076A077B07A0F08C0112C085FF3D
:101E800010C0EE81FF818681978155E0880F991FF0
:101E90005A95E1F728893989821B930B801791079E
:101EA00060F378012E012CE0420E511C612C42E0BF
:101EB000742EE114F10409F4B5C088899989AA89BE
:101EC000BB894C0121E092222881EE81FF81AC0187
:101ED000BD0139E076956795579547953A95D1F7C5
:101EE00025FF29C0848D958DA68DB78D480F591F6C
:101EF0006A1F7B1FEE81FF818114910409F06BC082
:101F0000E11482E0F80608F466C083A194A1A5A1BB
:101F1000B6A1481759076A077B0709F45CC0950109
:101F2000808191810E943B07882309F44EC0C12C17
:101F300082E0D82E66C0D380D4228114910481F42B
:101F4000D1100EC0892B8A2B8B2B81F526FF29C03F
:101F5000848D958DA68DB78D8C879D87AE87BF8725
:101F6000EE81FF814C855D856E857F8542505109EC
:101F700061097109848104C0440F551F661F771FD2
:101F80008A95D2F780899189A289B389840F951F98
:101F9000A61FB71FAC01BD014D0D511D611D711D67
:101FA000A9CF8C8D9D8DAE8DBF8DD6CF4C855D8597
:101FB0006E857F859201CF010E94AF0987FD05C024
:101FC0008111CECF8881807769F58981826089838C
:101FD0008FEF9FEF2AC0C3018819990967018E15F9
:101FE0009F0508F46C0120E0CF0180960E94DC0779
:101FF000009759F3BC01680D791DA601C5010E9427
:10200000C138AC0CBD1C88899989AA89BB898C0D03
:102010009D1DA11DB11D888B998BAA8BBB8BEC18C4
:10202000FD0847CFC8018E199F09DF91CF911F91FD
:102030000F91FF90EF90DF90CF90BF90AF909F9067
:102040008F907F906F905F904F900895EF92FF92E6
:102050000F931F93CF93DF931F92CDB7DEB77C0111
:10206000962FF70140895189628973898A019B0102
:1020700085E036952795179507958A95D1F70F70C6
:1020800011F091112BC041E050E0BE016F5F7F4F16
:10209000C7010E940D0F813051F090E080E00F9059
:1020A000DF91CF911F910F91FF90EF900895F7016D
:1020B00080899189A289B3894F96A11DB11D808B1A
:1020C000918BA28BB38BF701868197818796F0E283
:1020D0000F9F90011124820F931FE1CF405E5F4F4D
:1020E0006F4F7F4F408B518B628B738BECCF2F9256
:1020F0003F924F925F926F927F928F929F92AF9298
:10210000BF92CF92DF92EF92FF920F931F93CF93E4
:10211000DF9300D01F92CDB7DEB77C017B836A834B
:10212000FA016115710509F4E5C0DB018C91807736
:1021300009F4E0C0D7018C918111DCC0C180D2804C
:102140008081837088248394882349F0C6010C968B
:102150006DE070E00E94B83688248394860E8F016B
:102160008A819B810E94D20C1982212C312C912CC6
:102170005801B6E0AB0EB11CEA81FB814088518862
:102180006288738861E0CF010E942610009709F4ED
:10219000B1C0DC012C91253E09F4A6C0222309F42C
:1021A000C0C0381470F12E3251F1FC0133853F303C
:1021B00009F05DC0911027C026FFDECF2F71922E4F
:1021C000F585F983222EE22DE150FF0BAF01FDE0F2
:1021D000F49F9001F59F300D11242C153D0578F4E6
:1021E000FC01712C64E06715B0F081819281C21608
:1021F000D306D1F4892B19F4BFCF253EA1F6912C3B
:10220000BBCF312CD0CF2A942211F9CF2585B981AB
:102210002B17C9F2F4CF8AE0871518F084819581D5
:10222000E6CF86819781E3CF8F3F910509F038F79C
:102230004FEB480F4A3108F4805EB9016F5F7F4F62
:10224000D80113964D915C91240F351FD9019C91B3
:102250002FEB290F2A3108F4905E9813D0CF739496
:102260003296BDE07B1609F487CF9B01BBCF33FDCF
:10227000C6CF992061F1E1E02E123CC00E94890A8C
:10228000F981F81337C0B301A20185E0769567950F
:10229000579547958A95D1F7292D6A817B81C7018A
:1022A0000F900F900F90DF91CF911F910F91FF90A2
:1022B000EF90DF90CF90BF90AF909F908F907F90E6
:1022C0006F905F904F903F902F900C94DA0C4BE002
:1022D00050E0B5010E94B438892B09F04DCFD801E8
:1022E0008C9180FD49CFCFCF381408F088CF33943C
:1022F000211183CF80E00F900F900F90DF91CF914D
:102300001F910F91FF90EF90DF90CF90BF90AF9013
:102310009F908F907F906F905F904F903F902F9005
:102320000895381420F3E6CF2F923F924F925F9298
:102330006F927F928F929F92AF92BF92CF92DF92D5
:10234000EF92FF920F931F93CF93DF93CDB7DEB73A
:10235000E7970FB6F894DEBF0FBECDBF7C018A01B0
:1023600019821A82DC018C918823D1F080E0E796F3
:102370000FB6F894DEBF0FBECDBFDF91CF911F9196
:102380000F91FF90EF90DF90CF90BF90AF909F9014
:102390008F907F906F905F904F903F902F90089517
:1023A0006115710519F3FB0180818077F9F2DA017B
:1023B0008C91FA018F3209F4A2C0FE01F296FFABB4
:1023C000EEABF8019F012F5F3F4F8081803209F40F
:1023D000AEC0FDA3ECA39F01A9014E1B5F0B8901B9
:1023E000D9018D919D01882371F08F3209F0A1C030
:1023F000CF01840F951F8C01DC012D91CD0120327E
:10240000D1F32F32C1F3DA01AE0FBF1FAD014E1B66
:102410005F0BEA17FB0709F4A6C08E918E32B1F369
:102420008032A1F34F3F510511F00CF09FCF5BA319
:102430004AA3DE0197966D0180E28D93AEA8BFA8F6
:10244000AA16BB06D1F7DF01CD018E1B9F0B2D9184
:102450002E32D1F32032C1F377247394009709F020
:10246000712C9A01215031095F01A40EB51E2F3F36
:10247000320709F07BC08EA0512CB7E0BAAB312CEB
:10248000612CA8E04A2E841795070CF0AEC0DF013E
:10249000A80FB91FAC90ADAAAA2DA03209F4A3C011
:1024A000AE3221F48217930709F09DC09DA8B92D83
:1024B000B232A9F0BC3799F0BA52B63018F4A92D4F
:1024C000AD3269F4BDA9BA53B63048F0BDA9BB55C9
:1024D000B33028F0BDA9B152BE3508F451C08217FF
:1024E000930709F0C1C08AA98A3009F4C8C0C9019C
:1024F000BAE0BAABA8E03A2EB0E14B2E60C08F0133
:1025000081918F32E1F3DB0116966D917C918111FF
:1025100004C0C7010E94530D2ACFCE0101960E942C
:10252000530DBE016F5F7F4F811147CF1FCFF90160
:1025300049CF8C3509F41ACF982F977F923209F43E
:1025400015CF8A3309F412CF982F9F7B9C3309F45F
:102550000DCF92EC980F923008F408CF80528F354F
:1025600008F43ACF03CF50E040E061CFD5019E9010
:102570005D01BEE29B1609F47ECF2150310977CF71
:102580008217930709F4AFCFBAA9B31508F470C046
:10259000BDA9B156BA31D0F4ADA9A052ADAB542803
:1025A00022242394230C5601A30CB11CD501ADA801
:1025B000AC92A6E0BA2E322CB21408F0822C01960E
:1025C00062CF712CBFE5BDABBFE59B2EBFEBB90D54
:1025D000BA3130F76428E4CFC901AAE0AAABA8E079
:1025E0003A2EB0E14B2E712CEACF8EA28FA1803211
:1025F00009F4BCCE772011F1852D862111F082E0FF
:10260000582E59A2F8018081AE014F5D5F4F88239B
:1026100039F1C7010E947710882309F4A7CE80E220
:10262000F701DE01119601900D928A95E1F7C7013D
:102630000E94A70BBE016F5F7F4FC3CE81E089A3CD
:10264000912CF601E80DF91D8EE78083E8E2F0E0B9
:10265000EC0FFD1F8E0E9F1E81E3D4018C93D2CF11
:10266000C7010E94771083CEAAA9A31508F0A9CFAD
:10267000BAA9BA3021F0281739070CF0ADCF8EA2D5
:10268000712CB4CFCF93DF93CDB7DEB7A0970FB641
:10269000F894DEBF0FBECDBF19821A82FC012081E3
:1026A0002F3279F4218121110CC081E00E946D0D3F
:1026B000A0960FB6F894DEBF0FBECDBFDF91CF91CD
:1026C0000895AC0167ED76E0CE0101960E94941169
:1026D000882371F399819077A1F090E2FE01319601
:1026E000A7EDB6E001900D929A95E1F79091D7068B
:1026F0009077F1F227ED36E030937604209375045D
:10270000D7CF80E0D5CFCF92DF92EF92FF920F9399
:102710001F93CF93DF9320919004211115C0009750
:1027200099F0FC012081207779F0408951896289F4
:1027300073894F715527662777278C01C0E0D0E059
:10274000452B462B472B59F080E0DF91CF911F910D
:102750000F91FF90EF90DF90CF900895C0E0F801C7
:10276000C088D188E288F38860E0C8010E94261002
:10277000009751F3FC012081222331F32E3271F3B3
:10278000253E61F3338533FD1DC0CC2321F00E942B
:10279000890A8D13D9CFB701A60185E07695679593
:1027A000579547958A95D1F72C2FB80180E994E089
:1027B000DF91CF911F910F91FF90EF90DF90CF901D
:1027C0000C94DA0C3F3051F626FFC9CFC22FCF71DF
:1027D000D585C5CFCF93DF93809175049091760412
:1027E0000E94D20C10928F0310928E03C091750438
:1027F000D0917604CE010E948313882371F080E982
:1028000094E00E94A70B80918E0390918F03019614
:1028100090938F0380938E03E9CFCE01DF91CF9108
:102820000C94D20C2F923F924F925F926F927F92B4
:102830008F929F92AF92BF92CF92DF92EF92FF92D0
:102840000F931F93CF93DF93CDB7DEB7A0970FB64B
:10285000F894DEBF0FBECDBF7C018B0119821A82B6
:10286000DC018C91882309F4C7C013969C919111C7
:1028700027C0807601F18FE2FB01808311829924C9
:102880009394892DA0960FB6F894DEBF0FBECDBFEE
:10289000DF91CF911F910F91FF90EF90DF90CF903C
:1028A000BF90AF909F908F907F906F905F904F9070
:1028B0003F902F900895C7010E94300A982EE1CFD3
:1028C000F70180859185A285B385668177819E0118
:1028D0002F5F3F4F59010097A105B10509F072C064
:1028E000C9010E94530D882309F486C066246394AD
:1028F000712CD12CC12C2801F3E64F0E511CD701AD
:1029000013968C911397861508F476C014964D9102
:102910005C914619570970E060E085E0440F551F4F
:10292000661F771F8A95D1F7C5010E94E60A982E87
:10293000882309F461C060E0C5010E942610FC01F3
:10294000892B09F459C083858F3009F055C08081E7
:102950008F71681251C0A8014C0D5D1D1F019601B9
:1029600060E0D1016530F0F511968D919C91009752
:1029700099F024363105D0F48F37910510F08FE3AC
:1029800090E02F5F3F4FDA018D93AD016F5FB2E0B2
:102990002B0E311C6D3029F72436310538F4808137
:1029A00086FF04C0200F311FD9011C92D2011C9256
:1029B000BDE0CB0ED11C2FEF621A720A808186FF18
:1029C0009ECF5FCF2CE1F50111922A95E9F720E126
:1029D000298321E02B8378876F838D8F9E8FAF8F24
:1029E000B8A384CF6B3020F414968D919C91BFCF07
:1029F00016968D919C91BBCFD8011C92912C41CF02
:102A00000F931F93CF93DF9300D000D0CDB7DEB7E5
:102A1000AB01BC0180E994E00E94E60A882309F436
:102A200040C044E050E0BE016F5F7F4F80E994E01A
:102A30000E940D0F84309105A1F4409184035091C0
:102A4000850360918603709187034C5F5F4F6F4FE2
:102A50007F4F409384035093850360938603709364
:102A600087034B815C8170E060E0BA015527442701
:102A700009811A8130E020E0402B512B622B732B0F
:102A80004093A6015093A7016093A8017093A901F8
:102A90000F900F900F900F90DF91CF911F910F919A
:102AA000089590E080E0DDCFCF93DF9300D01F92B8
:102AB000CDB7DEB7AB01BC0180E994E00E94E60A25
:102AC0008823C1F143E050E0BE016F5F7F4F80E992
:102AD00094E00E940D0F83309105A1F4409184038E
:102AE0005091850360918603709187034D5F5F4F1E
:102AF0006F4F7F4F40938403509385036093860309
:102B0000709387034A815B8170E060E0762F652FC8
:102B1000542F44272981422B4093A6015093A701AB
:102B20006093A8017093A9010F900F900F90DF910F
:102B3000CF91089590E080E0E5CFCF93DF9300D070
:102B4000CDB7DEB7AB01BC0180E994E00E94E60A94
:102B5000882359F142E050E0BE016F5F7F4F80E96A
:102B600094E00E940D0F82309105A1F440918403FE
:102B70005091850360918603709187034E5F5F4F8C
:102B80006F4F7F4F40938403509385036093860378
:102B90007093870329813A813093A5012093A40182
:102BA0000F900F90DF91CF91089590E080E0F2CFE9
:102BB000CF93DF931F92CDB7DEB7AB01BC0180E9A5
:102BC00094E00E94E60A882339F141E050E0BE011A
:102BD0006F5F7F4F80E994E00E940D0F8130910577
:102BE000A1F4409184035091850360918603709114
:102BF00087034F5F5F4F6F4F7F4F40938403509326
:102C00008503609386037093870329812093A30132
:102C10000F90DF91CF91089590E080E0F6CF809102
:102C20009B018111ACC060918403709185038091F8
:102C30008603909187030E94D81520917B0301970A
:102C400009F06DC08091A30180939A018091960153
:102C500090919701A0919801B0919901253009F0C8
:102C600056C02FEF20939A0124E020937B034091DC
:102C700084035091850360918603709187034150CE
:102C8000510961097109409384035093850360934E
:102C90008603709387030296A11DB11D8093960150
:102CA00090939701A0939801B093990190919A0104
:102CB000809195018927809395018091960190914B
:102CC0009701A0919801B0919901892B8A2B8B2BA8
:102CD00009F044C08091840390918503A0918603FC
:102CE000B09187030197A109B10980938403909360
:102CF0008503A0938603B0938703809193019091FD
:102D00009401892B41F481E0809383030895019716
:102D1000A109B109C3CF85E08093820308952430CF
:102D200021F081E080938003E8CF8091950180932A
:102D30009A018091960190919701A0919801B0918C
:102D400099010196A11DB11D809396019093970161
:102D5000A0939801B093990110927B038091960102
:102D600090919701A0919801B09199010197A105C7
:102D7000B10529F188E080939B0110929201809126
:102D80009A0187FF1FC080919001909191019093CB
:102D90000E0180930D01809192018F5F80939201CB
:102DA000823061F480919A01880F80939A0180911A
:102DB0009B01815080939B01109292010895809114
:102DC0000201D9CF80918E0190918F01E0CF809147
:102DD0008203833071F128F4813049F08230F9F0B8
:102DE0000895843081F1853009F495C0089580916B
:102DF00087019091880190930E0180930D0180913D
:102E000085019091860101979093860180938501B9
:102E1000892B09F098C082E0809382030895809105
:102E200083019091840190930E0180930D0183E0C2
:102E3000F3CF809181019091820190930E01809354
:102E40000D0184E0E9CF80917B039CEF980F9230D5
:102E500010F0811102C00C940F1680919B0181111A
:102E60002DC080917A03833149F48091950180933C
:102E70009A0182E080937B0385E0CECF8F5F8093C1
:102E80007A03843108F03FC0E82FF0E0ED5EFE4F9A
:102E9000E491E0939A018D3089F58091FA03835093
:102EA00080939A0190919A0180919501892780934E
:102EB000950188E080939B011092920180919A0184
:102EC00087FF24C0809190019091910190930E0111
:102ED00080930D01809192018F5F809392018230E7
:102EE00091F580919A01880F80939A0180919B01BE
:102EF000815080939B011092920108958E3091F63B
:102F00008091FB03CDCF80910201D4CF80918E01BF
:102F100090918F01DBCF20917C0380919301909160
:102F200094012E3F89F02B3F79F090938A01809392
:102F3000890189E580937C0380918003813019F4B5
:102F40008FEF80937C030895906890930E01809397
:102F50000D0110928203F0CF80919B0181113FC03F
:102F6000609184037091850380918603909187031B
:102F70000E94D815019709F04AC08091A30180935F
:102F80009A018091960190919701A0919801B0913A
:102F900099010197A109B109809396019093970136
:102FA000A0939801B093990110928D01892B8A2BDF
:102FB0008B2B81F481E080938C018091930190911F
:102FC0009401892B21F486E08093830303C085E07C
:102FD000809382038BE080939B01109292018091F9
:102FE0009B01823039F480918B01811103C081E013
:102FF00080939B0180919B0120918E0130918F01E4
:103000008B3039F430930E0120930D0116C085E00A
:10301000DBCF80919B01823009F044C080918B010D
:10302000817090918D018917D1F1909190018091DB
:10303000910190930D0180930E01809192018F5F19
:103040008093920140910D0150910E014217530758
:10305000D9F59091010189134AC080919B0182307A
:1030600058F080919B018B3038F480919A0190E068
:103070009595879580939A0180919B0181508093CB
:103080009B011092920180918C01882381F18091A3
:103090009B0181112CC085E0809383030895922FBA
:1030A000832FC7CF80919B01813049F4809190019B
:1030B0009091910190930E0180930D01BECF80916C
:1030C0009A0180FDF3CF9ECF9091000189130FC02C
:1030D00080919B01823080F280919B018B3060F661
:1030E00080918D0191E0892780938D01BECF089555
:1030F00080919B01811128C06091840370918503A8
:1031000080918603909187030E94D8150197F1F46E
:103110008091A30180939A018091960190919701EB
:10312000A0919801B09199010197A109B1098093EB
:10313000960190939701A0939801B093990189E02B
:1031400080939B01109292010C944E0C80919301FC
:103150009091940190938A018093890189E58093ED
:103160007C03EDCFCF92DF92EF92FF920F931F93EC
:10317000CF93DF93C3E8D4E081E8C82E84E0D82E53
:103180000C81F0908304E090840418E0602F661FA7
:103190006627661F8E2D0E94AA03000F61E08F2D07
:1031A0000E94AA0360E08F2D0E94AA03115071F7BC
:1031B0002197CC16DD0621F761E0809185040E94FD
:1031C000AA0360E080918504DF91CF911F910F9158
:1031D000FF90EF90DF90CF900C94AA030F931F9372
:1031E000CF938C01C62F0E945A056C2F6460C801D2
:1031F0000E945A056C2F6B7FC8010E945A0583EC10
:1032000090E00197F1F7CF911F910F9108950F93DF
:103210001F93CF93DF938C01D62FC42F607F642B35
:103220000E94EE1880E1D89FB00111246C2BC801D8
:10323000DF91CF911F910F910C94EE18CF93DF93F4
:10324000CDB7DEB728970FB6F894DEBF0FBECDBF5F
:1032500098E0E4E2F1E0DE01119601900D929A957A
:10326000E1F790910907961710F46FEF690F262F79
:1032700030E0220F331F41E050E04C0F5D1F240F60
:10328000351FF9016081680F606840E080E097E0D9
:1032900028960FB6F894DEBF0FBECDBFDF91CF9159
:1032A0000C94071941E00E94071981E090E008950D
:1032B0000F931F93CF93DF938C01D0E0C0E0F80110
:1032C000EC0FFD1F6491662339F041E080E097E048
:1032D0000E9407192196F3CFCE01DF91CF911F9164
:1032E0000F9108950F931F93CF938C01C62F80E009
:1032F0000E941E1981E890E00E9458196C2F80E00E
:103300000E941E19C801CF911F910F910C948C0D32
:10331000EF92FF920F931F93CF93DF93CDB7DEB75A
:1033200061970FB6F894DEBF0FBECDBF2091730436
:1033300040917404CE01019630E0442391F14EE3B4
:103340004983FC0150E040E00EE014E0D8010D900C
:103350000020E9F7AF50B440B901640F751F6A1738
:103360007B07E8F4625F7B4FDB016C9161834F5F09
:103370005F4F31964F30510549F7198A61E070E08F
:103380000E94721961960FB6F894DEBF0FBECDBFD2
:10339000DF91CF911F910F91FF90EF9008951182CF
:1033A000E6CFFC0150E040E00EE014E07901E81ABD
:1033B000F90AD8010D900020E9F7BD016F50744063
:1033C000D701AE0FBF1FA617B70770F4DA01A20F1F
:1033D000B31FA25FBB4F6C9160834F5F5F4F31960D
:1033E0004031510531F7C9CF1082F7CFCF93DF932A
:1033F00080910D048130D9F4809175049091760408
:103400000E94D20CC1E0D0E08091750490917604C6
:1034100020911C0130911D01C217D30744F40E9472
:10342000831380E994E00E94A70B2196EDCFC09111
:103430007504D091760480911C0190911D01019733
:1034400019F4CE010E94D20CCE010E9483136EE0CB
:1034500074E080E994E00E94121480919004882323
:1034600041F0807609F446C08FE280930004109208
:1034700001048091A8049091A904A091AA04B0919C
:10348000AB048093FC039093FD03A093FE03B093E1
:10349000FF0303969093FB038093FA0380919004BB
:1034A000807779F566E571E080E094E00E94D53898
:1034B000892B39F11092740480E994E00E94A70BE3
:1034C0001092EA038091740469E673E0813011F090
:1034D0006BE573E08AEE93E00E94063470E060E0F2
:1034E0008AEE93E00E94721910927304DF91CF91DB
:1034F0000C94881960E074E080E994E00E94300A3E
:10350000B8CF81E080937404D7CF0F931F93CF93EC
:103510008C01C62F80E00E941E1980E790E00E9477
:1035200058196C2F80E00E941E19C801CF911F917D
:103530000F910C9458190E94A10C8091E2038130E4
:1035400041F470E060E088E690E00E94851A1092F5
:10355000E203089540E061E080E097E00E940719EF
:103560008BE39FE10197F1F70895CF92DF92EF92FD
:10357000FF920F931F93CF93DF93CDB7DEB7A19741
:103580000FB6F894DEBF0FBECDBF60E088E00E94AA
:103590001E192091720230E050E040E019A28E0125
:1035A0000F5D1F4F8AE0C82ED12CE12CF12CCA01EF
:1035B000B901A70196010E947235605DF80162931E
:1035C0008F01211531054105510589F7309761F0CB
:1035D00001900020E9F73197AF01401B510BB80172
:1035E00080E097E00E942B038BE591E00E948C0D18
:1035F000A1960FB6F894DEBF0FBECDBFDF91CF917D
:103600001F910F91FF90EF90DF90CF9008958091E0
:1036100072024AE06AEE73E090E00E94353462E99B
:1036200070E08AEE93E00E94063460E088E00E9439
:103630001E198AEE93E00E948C0D6DE571E08AEE12
:1036400093E00E94DE382091890330918A03C901FA
:1036500068EE73E00E94B8368A30910590F4C90193
:103660006AE070E00E94B8364AE06CEE73E00E94B7
:10367000353460E08DE00E941E198AEE93E00C94D0
:103680008C0D4AE06BEE73E08436910580F36AEEB0
:1036900073E0EDCF0F931F93CF93DF93EC018881FD
:1036A0009981009759F02A813B812617370730F01E
:1036B00081E0DF91CF911F910F9108958B016F5F92
:1036C0007F4F0E94F737009759F0998388831B83B7
:1036D0000A832C813D81232B59F7FC011082E8CF0E
:1036E00080E0E7CFCF93DF93EC0188819981009749
:1036F00011F00E946E37198218821D821C821B8273
:103700001A82DF91CF910895EF92FF920F931F934A
:10371000CF93DF938C017B01EB0109900020E9F747
:103720002197C61BD70BBE010E944A1B811109C0FD
:10373000C801DF91CF911F910F91FF90EF900C94F2
:10374000721BF801D583C483B70180819181DF9119
:10375000CF911F910F91FF90EF900C94DE38FC01F8
:1037600080819181009711F00C946E37089585ED5A
:103770008093BC008091360290913702A09138026C
:10378000B09139020796A11DB11D23E0B695A7950A
:10379000979587952A95D1F72091BC0024FD03C009
:1037A0001092340208954091360250913702609190
:1037B000380270913902452B462B472B69F300974D
:1037C000A105B10541F025E32A95F1F70000019725
:1037D000A109B109E1CF809135020C94B304CF92D5
:1037E000DF92EF92FF920F931F93CF93DF93CDB7AA
:1037F000DEB7AD970FB6F894DEBF0FBECDBF109207
:103800000E0110920D0180918303811134C040E0BC
:1038100050E0BA0180E994E00E94E60A882309F4A6
:1038200065C14AE050E0BE016F5F7F4F80E994E0E0
:103830000E940D0F47E050E063EB70E0CE0101966F
:103840000E94F933892B41F061E070E087EA90E053
:103850000E94851A0E94A10C8AE090E0A0E0B0E0EE
:103860008093840390938503A0938603B09387038A
:1038700081E08093830380918303833081F540E06E
:1038800050E0BA0180E994E00E94E60A882309F436
:1038900034C148E050E0BE016F5F7F4F80E994E0A3
:1038A0000E940D0F48E050E069ED70E0CE010196F6
:1038B0000E94F933892B41F061E070E08DEC90E0DB
:1038C0000E94851A0E94A10C109284031092850315
:1038D000109286031092870382E080938303809185
:1038E00083038430A1F540E050E0BA0180E994E020
:1038F0000E94E60A882309F407C149E050E0BE01AE
:103900006F5F7F4F80E994E00E940D0F49E050E027
:1039100061E071E0CE0101960E94F933892B41F0FC
:1039200061E070E084EF90E00E94851A0E94A10C93
:103930008CE090E0A0E0B0E0809384039093850356
:10394000A0938603B093870385E0809383038091DF
:103950008303853009F092C06091840370918503E0
:1039600080918603909187030E949D15029709F02C
:10397000D7C00091A4011091A5011093800100937C
:103980007F016091840370918503809186039091FB
:1039900087030E940015049709F0C2C08091A60118
:1039A0009091A701A091A801B091A90180939601DF
:1039B00090939701A0939801B093990110928B0175
:1039C00004301140F1F50397A109B10980939601E4
:1039D00090939701A0939801B0939901609184030B
:1039E0007091850380918603909187036F5F7F4F6D
:1039F0008F4F9F4F6093840370938503809386035A
:103A0000909387030E94D815019741F48091A301F8
:103A10008F3409F080C082E080938B018091840311
:103A200090918503A0918603B09187030196A11D13
:103A3000B11D8093840390938503A0938603B09374
:103A4000870380918D03811172C080EA91E0909389
:103A50008F0180938E0180ED90E09093910180938F
:103A6000900110928C0110929B011092920186E0BD
:103A7000809383031092820310927E0180918303CE
:103A8000863009F0EDC020917F0130918001223114
:103A900041E0340709F45BC208F086C0243041E0FD
:103AA000340709F4DBC008F04BC02115314009F49C
:103AB000D5C08091840390918503A0918603B09135
:103AC0008703409196015091970160919801709100
:103AD0009901840F951FA61FB71F809384039093AD
:103AE0008503A0938603B093870350C270E060E023
:103AF00084E990E00E94851AAFCE70E060E08AEB26
:103B000090E00E94851AE0CE70E060E081EE90E0E7
:103B10000E94851A0DCF853409F080CF81E07CCFDB
:103B20008FEF9FEF9093800180937F018ACF8DE488
:103B300091E090938F0180938E0186EA90E08DCF83
:103B4000203181E0380709F49CC12131314009F06E
:103B5000B0CF10917E01809182038111C5C1609127
:103B600084037091850380918603909187030E945E
:103B70009D15029791F48091A4019091A501880F61
:103B8000991F880F991F909386018093850180ED7E
:103B900090E0909388018093870181E08093820375
:103BA0001F5F10937E015CC0609184037091850358
:103BB0008091860390918703263141E0340709F410
:103BC000E9C150F52431314009F073CF0E949D15B1
:103BD0000297F9F48091A4019091A501880F991F93
:103BE000880F991F909386018093850180918403AB
:103BF00090918503A0918603B09187030297A10954
:103C0000B1098093840390938503A0938603B093B6
:103C100087030E948A0C4DCF273141E0340709F415
:103C2000E4C12F3F3F4F09F044CF0091960110911E
:103C300097012091980130919901DC01CB01800F0F
:103C4000911FA21FB31F8093840390938503A093B9
:103C50008603B09387030E949B1AE8C30E94AC17A7
:103C6000809183038130D1F4609184037091850346
:103C700080918603909187030E94D815019709F0DF
:103C8000CCC18091A30180937C0310929B01109280
:103C9000920182E0809383031092820380918303D8
:103CA000823009F0C3C380917C038A3209F464C670
:103CB00008F05AC2853109F41AC508F02BC28231C6
:103CC00009F48EC408F0ABC1803109F429C38131F5
:103CD00009F4BBC30E94AA1A60E080E00E941E198A
:103CE00081E691E00E948C0D60E084E00E941E1944
:103CF00080917C031BA21AA21DA21CA21FA21EA2BD
:103D000040E1BE016F5F7F4F90E00E946234BE01D0
:103D10006F5F7F4FCE0182960E94841B4EA15FA1F0
:103D20006AA17BA180E097E00E942B03CE018296DE
:103D30000E94AF1B61E080E00E941E1980917B0110
:103D400090917C0119A618A61BA61AA61DA61CA652
:103D50004AE0BE016F5F7F4F0E946234BE016F5F19
:103D60007F4FCE0188960E94841B609184037091DE
:103D7000850380918603909187031BA21AA21DA23E
:103D80001CA21FA21EA220E1AE014F5F5F4F0E9446
:103D90004034BE016F5F7F4FCE0182960E94841B2C
:103DA0001A8219821C821B821E821D820AA11BA1FB
:103DB0000115110571F0EEA0FFA0B701CE0101962B
:103DC0000E944A1B81110C941E27CE0101960E946D
:103DD000721B0D811E810A5F1F4FB801CE01019633
:103DE0000E944A1B882311F40C94272729813A81C9
:103DF0008D819E8166E671E0820F931F0E94DE38FE
:103E00001E830D83E8A4F9A4E114F10411F40C94C9
:103E10002D270CA51DA501151105C1F08D819E81D1
:103E2000080F191FB801CE0101960E944A1B882372
:103E300011F40C942D2729813A818D819E81B7013F
:103E4000820F931F0E94DE381E830D834D815E8199
:103E500069817A8180E097E00E942B03CE01019670
:103E60000E94AF1BCE0182960E94AF1BCE018896A6
:103E70000E94AF1B68E873E180E090E00E942E048E
:103E8000EACE8091820381115FC0609184037091BA
:103E9000850380918603909187030E949D15029768
:103EA000B1F480918D03811116C08091A40190918D
:103EB000A501880F991F880F991F90938601809301
:103EC000850180ED90E0909388018093870181E0E7
:103ED00080938203C5CE80E491E090938601809325
:103EE000850186EA90E0EFCF1130D9F40E948A0C68
:103EF0008091850190918601892B09F0B1CE86E0F1
:103F0000809383038AEA80939A0181E080938C01F5
:103F10008AE080939B011092920182E080937E015F
:103F20009FCE123071F410928B010E94AC178091D9
:103F30009B01811195CE86E08093830310928203CA
:103F40008FCE133009F0AACE0E948A0C89CE6091E0
:103F500084037091850380918603909187030E946A
:103F60009D15029709F09ACE8091A4019091A50128
:103F7000009761F090938A018093890129E520934D
:103F80007C03906890930E0180930D0185E08093EF
:103F9000830366CE0E940015049709F07FCE8091BE
:103FA000A6019091A7019093A5018093A40160912F
:103FB000A4017091A5018091A6019091A7010E9492
:103FC00082367093A5016093A40161157105F1F229
:103FD00070938A016093890129E520937C037068BE
:103FE00070930E0160930D01D1CF0E949D15029731
:103FF00009F054CE8091A4019091A5018C3291409A
:1040000039F488E08093010180E180930001BECF04
:1040100082E08093010184E0F8CF8FEF34CE8331CA
:1040200009F422C3843109F055CE809182038111B5
:104030004AC36091840370918503809186039091B7
:1040400087030E949D15029751F48091A4019091DD
:10405000A5010E94BA0C90938F0180938E0160910C
:1040600084037091850380918603909187030E9459
:104070009D15029751F48091A4019091A5010E9491
:10408000BA0C909391018093900160918403709198
:10409000850380918603909187030E94D81501972C
:1040A00021F48091A30180930201609184037091B7
:1040B000850380918603909187030E949D15029746
:1040C00041F48091A4019091A50190939401809373
:1040D0009301609184037091850380918603909190
:1040E00087030E945415039709F0D2C28091A6015C
:1040F0009091A701A091A801B091A9010196A11DDD
:10410000B11D8093960190939701A0939801B0936D
:104110009901BEC28132B9F1D0F4893109F4ACC33E
:10412000803209F0D7CD609184037091850380912E
:104130008603909187030E949D15029709F076C12E
:104140008091A4019091A501009751F0C5C28432DD
:1041500009F4CFC3853209F4F2C3823209F0BACD33
:1041600081E08093830362C18B3409F469C408F051
:104170005BC0813309F418C408F58B3209F408C414
:10418000803309F0A7CD60918403709185038091FD
:104190008603909187030E94D815019709F7209113
:1041A000A3018091840390918503A0918603B0912F
:1041B0008703820F911DA11DB11DD5C3833309F45F
:1041C0001CC408F4FCC3853309F084CD60918403DA
:1041D000709185038091860390918703605F7F4F84
:1041E0008F4F9F4F60938403709385038093860362
:1041F000909387030E940015049709F0B1CF809136
:10420000840390918503A0918603B0918703409128
:10421000A6015091A7016091A8017091A901840F96
:10422000951FA61FB71F9FC38C3F09F4CDC508F08B
:1042300063C0893509F4D3C58B3F09F04BCD80911C
:1042400082038111F1C088EE93E0909394018093F2
:10425000930190917A0320E83FE1992311F028E936
:104260003CE030938601209385012BE632E03093C9
:104270008801209387012FEB30E030938401209355
:10428000830122ED30E0309382012093810124EFFD
:1042900030E030938F0120938E0129EE31E030938E
:1042A00091012093900181E080938203911102C0DB
:1042B00080937B0380917B03823009F0AEC0109223
:1042C0009501109284031092850310928603109238
:1042D00087038091FA039091FB030296B0E0A0E07F
:1042E0008093960190939701A0939801B0939901C0
:1042F00085E080937B0391C08E3F09F4FCC408F4F1
:1043000036C580911001882309F4A5CC2FEF3FE733
:1043100030930E0120930D0181508093100186C0CF
:1043200080918203811180C0609184037091850324
:1043300080918603909187030E949D15029741F416
:104340008091A4019091A501909394018093930191
:104350006091840370918503809186039091870317
:104360000E949D15029779F48091A4019091A50176
:104370000196B0E0A0E08093960190939701A093FE
:104380009801B093990160918403709185038091A5
:104390008603909187030E94D8150197E9F48091D4
:1043A000A30181113EC08FE79FE190938601809326
:1043B00085018091840390918503A0918603B0913B
:1043C00087030197A109B109809384039093850322
:1043D000A0938603B09387038BE692E090938801C5
:1043E000809387018FEB90E0909384018093830109
:1043F00082ED90E0909382018093810184EF90E0C0
:1044000090938F0180938E0189EE91E090939101BA
:104410008093900181E08093820388E08093020181
:1044200005C087E99CE0C1CF0E94E716AD960FB6A4
:10443000F894DEBF0FBECDBFDF91CF911F910F91DA
:10444000FF90EF90DF90CF900895809182038111CB
:10445000EBCF6091840370918503809186039091E6
:1044600087030E949D15029751F48091A4019091B9
:10447000A5010E94BA0C90938801809387016091F6
:1044800084037091850380918603909187030E9435
:104490009D15029751F48091A4019091A5010E946D
:1044A000BA0C90938401809383016091840370918E
:1044B000850380918603909187030E949D15029742
:1044C00051F48091A4019091A5010E94BA0C90939F
:1044D00082018093810160918403709185038091B2
:1044E0008603909187030E949D15029751F4809155
:1044F000A4019091A5010E94BA0C90938F01809322
:104500008E01609184037091850380918603909160
:1045100087030E949D15029751F48091A401909108
:10452000A5010E94BA0C9093910180939001609133
:1045300084037091850380918603909187030E9484
:104540009D15029741F48091A4019091A50190934B
:104550008601809385016091840370918503809129
:104560008603909187030E94D815019721F48091CA
:10457000A30180930201609184037091850380916F
:104580008603909187030E949D15029741F48091C4
:10459000A4019091A501909394018093930160915F
:1045A00084037091850380918603909187030E9414
:1045B0005415039799F48091A6019091A701A091B9
:1045C000A801B091A9010196A11DB11D809396018A
:1045D00090939701A0939801B093990181E059C0FD
:1045E0008091820381112BC06091840370918503B7
:1045F00080918603909187030E949D15029751F444
:104600008091A4019091A5010E94BA0C9093880119
:104610008093870160918403709185038091860364
:10462000909187030E949D150297C1F68091A40185
:104630009091A5019093860180938501CFCF8091C1
:1046400087019091880190930E0180930D018091D4
:104650008501909186010197909386018093850151
:10466000892B09F47DCDE2CE60918403709185039E
:1046700080918603909187032091820321110CC0C1
:104680000E94D815019721F48091A30180937D01A8
:1046900084E080938203CACE0E949D15029751F454
:1046A0008091A4019091A5010E94BA0C90930E01F3
:1046B00080930D0180917D01815080937D0188233D
:1046C00009F44ECDB3CE843079F0853009F0AECE0A
:1046D000809193019091940190938A018093890134
:1046E00089E580937C03A2CE0E940F169FCE809115
:1046F000820381113CC06091840370918503809195
:104700008603909187030E949D15029751F4809132
:10471000A4019091A5010E94BA0C90939D018093F1
:104720009C01609184037091850380918603909130
:1047300087030E949D15029741F48091A4019091F6
:10474000A5019093940180939301609184037091EB
:10475000850380918603909187030E94D815019765
:1047600009F0B7CC8091A30180930201B2CC0091F3
:104770009C0110919D019801306430930E012093AB
:104780000D01843009F0A1CFFF24F394F0929E0133
:1047900080919B0181114FC06091840370918503CA
:1047A00080918603909187030E94D8150197B9F5EF
:1047B0008091A30180939A01809196019091970135
:1047C000A0919801B09199010197A109B109809335
:1047D000960190939701A0939801B0939901009747
:1047E000A105B105F9F48091840390918503A0910E
:1047F0008603B09187030197A109B10980938403CF
:1048000090938503A0938603B093870380919301CF
:1048100090919401892B09F4A3CC85E03ACFF092D2
:104820008003F4CF0197A105B10519F188E08093C9
:104830009B011092920180919A0187FF05C010663A
:1048400010930E0100930D01809192018E5F809371
:104850009201823009F0EACD80919A01880F80930D
:104860009A0180919B01815080939B01109292014B
:10487000DDCD80910201DBCF80918203882331F06E
:10488000843009F0D3CD0E947818D0CD6091840394
:104890007091850380918603909187030E94001593
:1048A00060918403709185038091860390918703C2
:1048B0000E949D15029741F48091A4019091A50159
:1048C0009093940180939301809184039091850348
:1048D000A0918603B09187038A5A9F4FAF4FBF4F75
:1048E0008093840390938503A0938603B0938703FA
:1048F000CFCE60918403709185038091860390915F
:1049000087030E949D15029709F02ACC8091A4018B
:104910009091A50190937C0180937B018091840309
:1049200090918503A0918603B091870380937701CE
:1049300090937801A0937901B0937A0111CC809182
:104940007B0190917C01019790937C0180937B0186
:10495000892B09F405CC8091770190917801A09181
:104960007901B0917A018093840390938503A09399
:104970008603B0938703F4CB8091840390918503E1
:10498000A0918603B09187030496A11DB11DEBCFC2
:104990008091840390918503A0918603B091870351
:1049A0000596A11DB11DDFCF609184037091850331
:1049B00080918603909187030E94D815E4CB609183
:1049C00084037091850380918603909187030E94F0
:1049D0009D15029709F0C4CB2091A4013091A50147
:1049E0008091840390918503A0918603B091870301
:1049F000820F931FA11DB11DB6CF609184037091EA
:104A0000850380918603909187030E94D8150197B2
:104A100009F0A6CB2091A30130E0A3E0B0E00E9412
:104A20009435009184031091850320918603309181
:104A30008703DC01CB01800F911FA21FB31F93CF0F
:104A400080918203813009F4BFC028F1843009F0DD
:104A50003CCE80919B01882309F41BC190919B015E
:104A6000809192018F5F9B3009F0C5C020918E012B
:104A700030918F0130930E0120930D0180939201AC
:104A8000823009F0C9C080919B01815080939B01C5
:104A900010929201C1C0609184037091850380914E
:104AA0008603909187030E940015049799F48091E2
:104AB000A6019091A701A091A801B091A9010C971E
:104AC000A109B1098093960190939701A093980151
:104AD000B09399016091840370918503809186035E
:104AE000909187030E949D15029741F48091A40143
:104AF0009091A501909394018093930180E197E2B6
:104B00009093860180938501809184039091850321
:104B1000A0918603B09187030A96A11DB11D8093D1
:104B2000840390938503A0938603B09387038091B9
:104B3000120190911301803649E0940759F1ACF4C9
:104B4000803B944009F04ACD80ED90E09093910134
:104B500080939001909388018093870181EA91E08E
:104B600090938F0180938E0139CD80312EE0920792
:104B7000F1F0803B9E4009F031CD83E490E09093CA
:104B8000910180939001909388018093870185E83B
:104B900090E0E6CF88E690E09093910180939001B9
:104BA000909388018093870181ED90E0D9CF85E4CF
:104BB00090E090939101809390019093880180936D
:104BC00087018BE890E0CCCF8091850190918601A0
:104BD0009C01215031093093860120938501892B56
:104BE00009F456CD809187019091880190930E0130
:104BF00080930D011BCC90919B01933038F520914F
:104C000090013091910130930E0120930D0180931A
:104C10009201843009F437CF8091960190919701E9
:104C2000A0919801B0919901892B8A2B8B2B09F0C7
:104C3000FDCB80919B018111F9CB809193019091E3
:104C4000940190938A0180938901E7CD90919A0114
:104C5000492F4170209190013091910190FD04C045
:104C600020918E0130918F0130930E0120930D0120
:104C700080939201442351F0843071F680919A011F
:104C800090E09595879580939A01FDCE823021F62C
:104C9000F5CF80919B018111BFCFC0909601D0903C
:104CA0009701E0909801F0909901C114D104E104BA
:104CB000F10409F4BECF6091840370918503809163
:104CC0008603909187030E94D815019709F0B4C01C
:104CD00081E0C81AD108E108F108C0929601D0928B
:104CE0009701E0929801F09299018091A30180933D
:104CF0009A018BE0CBCE80918203811195CB88EE17
:104D000093E0909394018093930160918403709158
:104D1000850380918603909187030E949D150297D9
:104D200079F48091A4019091A5010196B0E0A0E0F2
:104D30008093960190939701A0939801B093990165
:104D4000609184037091850380918603909187031D
:104D50000E94D815019709F03FCB8091A3018111E2
:104D600003C080E89FE121CB88E99CE01ECB8091C5
:104D70008203813059F008F083CD88E893E1909365
:104D80009401809393011092760128CC80919B012D
:104D9000811117C0E0917601F0E0E65FFE4FE491EB
:104DA000E0939A01809176018F5F809376018091E4
:104DB00076018A3009F46CCC89E080939B011092D3
:104DC00092010E944E0C32CB80918203811158CD0A
:104DD00088E893E1909394018093930159CC80915A
:104DE000890190918A010097F9F08D3620E29207AF
:104DF00090F02CE630E230930E0120930D018C569A
:104E0000904290938A018093890180910D01909145
:104E10000E019068EBCE90930E0180930D011092DD
:104E20008A0110928901F1CF81E080938303809100
:104E30008003813009F0FACA8FEF53CCFE82ED82F5
:104E4000B80189819A810E94DE380C94E91ECE0156
:104E500001960E94721B0C94021FCE0101960E94C3
:104E6000721B0C94261F1F920F920FB60F921124E3
:104E70002F933F938F939F93AF93BF9380915D0246
:104E800090915E02A0915F02B091600230915C024D
:104E900023E0230F2D3758F50196A11DB11D209356
:104EA0005C0280935D0290935E02A0935F02B093D8
:104EB00060028091610290916202A0916302B091C0
:104EC00064020196A11DB11D80936102909362025C
:104ED000A0936302B0936402BF91AF919F918F91B1
:104EE0003F912F910F900FBE0F901F90189526E8BD
:104EF000230F0296A11DB11DD2CF1F920F920FB6A4
:104F00000F9211242F933F934F935F936F937F934F
:104F10008F939F93AF93BF93EF93FF938091B900CB
:104F2000887F803609F44AC0F0F5883209F4A7C0BA
:104F300018F5803109F49BC0B8F4882309F4F9C04E
:104F4000883009F494C0FF91EF91BF91AF919F9188
:104F50008F917F916F915F914F913F912F910F9022
:104F60000FBE0F901F901895883109F488C08032C9
:104F700051F78093320214C0803409F49DC040F48C
:104F80008033B9F38833F9F68093320285ECB0C0F0
:104F9000803509F485C0883509F496C0883499F6BF
:104FA0000E94B71BD0CF883909F48CC038F58837F8
:104FB00029F050F4883611F0803729F683E0809389
:104FC000340210920D0257C0883809F47BC0803932
:104FD00019F0803809F0B7CF80910D02803208F0C7
:104FE00071C0E0910D0281E08E0F80930D028091DF
:104FF000BB00F0E0E351FE4F80833DC0803B39F0C1
:10500000E0F4803A09F479C0883A09F09CCF84E052
:10501000809334021092EC011092EB01E091670250
:10502000F091680209958091EB0181110FC081E038
:105030008093EB011092CB0109C0803C09F4A6CF0C
:10504000883C09F4A3CF883B09F07DCFE091EC01C7
:1050500081E08E0F8093EC01F0E0E553FE4F8081FC
:105060008093BB009091EC018091EB0129C080916D
:105070000F028093BB0085EC8093BC0064CF9091BD
:10508000310280913002981758F5E091310281E0A9
:105090008E0F80933102F0E0E05FFD4F8081E9CF19
:1050A000E091310281E08E0F809331028091BB004C
:1050B000F0E0E05FFD4F80839091310280913002FB
:1050C0009817C8F285E8D8CFE091310281E08E0FC1
:1050D000809331028091BB00F0E0E05FFD4F808360
:1050E0008091330281115CCF81E080930E0284EACB
:1050F0008093BC001092340226CF85EC8093BC00D4
:105100001092340280910D02803230F4E0910D0251
:10511000F0E0E351FE4F108260910D0270E0E091EB
:105120006502F09166028DEE91E0099510920D02F4
:105130000ACF1092320234CF1F920F920FB60F9205
:1051400011242F933F934F935F936F937F938F938C
:105150009F93AF93BF93EF93FF93E0910301F0917F
:1051600004010995FF91EF91BF91AF919F918F91AC
:105170007F916F915F914F913F912F910F900FBE53
:105180000F901F901895CF93E7E7F4E013821282F7
:1051900088EE93E0A0E0B0E084839583A683B78394
:1051A00080E391E091838083E0E0F7E01382128254
:1051B00082E491E09183808387E2848380E1808729
:1051C000C2E0C187128688E083871092B5041092EE
:1051D000D7061092D80684E68093F7061092FC0654
:1051E00080E58093FD061092FE06ECE8F4E0148260
:1051F0001582138212828EE491E0918380830E9453
:1052000061046854744F8F4F9F4F6093880470936C
:10521000890480938A0490938B04E3E8F4E083E0AC
:10522000808385E08183C28361E083E00E94D803AC
:1052300061E085E00E94D80361E082E00E94D8032B
:1052400060E083E00E94AA0360E085E00E94AA0378
:1052500060E082E00E94AA03109287041092860404
:10526000CF910C94B218CF93DF93CDB7DEB7A4974C
:105270000FB6F894DEBF0FBECDBF789484B58260C0
:1052800084BD84B5816084BD85B5826085BD85B5EA
:10529000816085BD80916E00816080936E00109268
:1052A00081008091810082608093810080918100E3
:1052B0008160809381008091800081608093800074
:1052C0008091B10084608093B1008091B0008160D2
:1052D0008093B00080917A00846080937A008091FE
:1052E0007A00826080937A0080917A008160809356
:1052F0007A0080917A00806880937A001092C100D1
:1053000010926C0210926B0210926A021092690263
:105310000E94950489E293E090936802809367026B
:105320008AE293E0909366028093650210920507EB
:1053300080910907823018F098E0909305079091CA
:105340000A07992339F0813029F480910507846098
:105350008093050762E370E080E090E00E942E04F5
:1053600060910B0780E097E00E945A0568EE73E0B9
:1053700080E090E00E942E0460E380E097E00E94CD
:10538000EE180BE416E4C8010197F1F760E380E042
:1053900097E00E94EE18C8010197F1F760E380E002
:1053A00097E00E94EE1883E592E00197F1F760E242
:1053B00080E097E00E94EE1860910507606240E08F
:1053C00080E097E00E94071984E08093060740E0A0
:1053D0006CE080E097E00E9407190E94AA1A82E020
:1053E0008093070740E066E080E097E00E9407199D
:1053F00040E062E080E097E00E9407198BE39FE1C4
:105400000197F1F788E080930B0760E080E097E078
:105410000E945A050E94AA1A40E060E480E097E0EA
:105420000E94071905E011E04DE0E42E41E0F42E62
:10543000F80161918F0180E097E00E945219E01617
:10544000F106B1F761E084E00E94D8031092FA06F9
:105450001092F7061092FC068DEF96E09093F906F5
:105460008093F8060E9461048B01E090F806F090AA
:10547000F90684E0F701828361E00E94D80361E0CD
:10548000F70182810E94AA03FFB6F89480916D0211
:10549000811127C0E7E7F1E08491E3E6F1E0949120
:1054A000E82FF0E0EE0FFF1FE15BFE4FA591B491F6
:1054B000EC91E92321F461E08AE00E94AA0361E013
:1054C0008AE00E94D8038CB580618CBD8CB5806465
:1054D0008CBD61E08DE00E94D80361E08BE00E940A
:1054E000D80380916D028F5F80936D02FFBEE091C3
:1054F000F806F091F90682E5808311828091FA0620
:10550000811104C087EF96E00E944206E091F80600
:10551000F091F90661E082810E94AA032AE0F22E4E
:105520008FEF0E945606FA94F110FACFE091F80638
:10553000F091F90660E082810E94AA039AE0F92EB8
:1055400020E030E0A90160E087EF96E00E9492063B
:10555000E82EF1E08F1709F474C1FA94F11063C1D9
:1055600080E28093F70687EF96E00E947D0670E068
:1055700060E08CE891E00E94851A812C912C540106
:105580008394F0EB6F2EF4E07F2E6AE0E62EF12C90
:1055900074E6C72ED12C0E9461040091E60310919D
:1055A000E7032091E8033091E903601B710B820B44
:1055B000930B009118011091190120911A0130915B
:1055C0001B01061717072807390708F044C0109178
:1055D000E50313FB442740F949A31AA2E9A1FAA164
:1055E000ED57FB4F812F8770A501940104C0220F56
:1055F000331F441F551F8A95D2F7C90180959381A7
:10560000892383830E94B2188091E303180F1093BB
:10561000E50313FB332730F93BA31CA2EBA1FCA14C
:10562000ED57FB4F1770D501C40104C0880F991FB7
:10563000AA1FBB1F1A95D2F72381822B83830E9456
:10564000B2180E9461046093E6037093E7038093AD
:10565000E8039093E9038091E203813009F0DDC211
:10566000F89480910F018093750210920F01809140
:10567000DD0380938803789480917502813021F452
:10568000109274021092750280917402813408F0B5
:105690002CC20E94EF1B80910D0190910E01892B6D
:1056A000E9F0F8942091740230E0E091730281E017
:1056B000E82780910D0190910E01220F331FE20F18
:1056C000F32FF11DEE0FFF1FEA58FD4F91838083EA
:1056D0007894809174028F5F809374020E946104B9
:1056E000009188041091890420918A0430918B04E0
:1056F000601771078207930708F441C08091E203A5
:1057000081113DC00EE014E0F80101900020E9F79E
:10571000CF018F509440409790F10E9461046650F1
:105720007F4F8F4F9F4F60938804709389048093BD
:105730008A0490938B040E948819809173048F5F70
:1057400080937304F80101900020E9F78F010F5056
:1057500014408017110699F090F0109273040E9483
:1057600061046854744F8F4F9F4F60938804709307
:10577000890480938A0490938B040E94881986E0A0
:105780000E948103809317010E9461040091DE034F
:105790001091DF032091E0033091E103601B710B56
:1057A000820B930B633371058105910508F4DDC706
:1057B0000E9461046093DE037093DF038093E00333
:1057C0009093E10381E10E9481038C01892B09F010
:1057D00081C38091E203811164C38091740481309C
:1057E00009F044C266E571E08EE094E00E94D5388D
:1057F000892B09F017C21092DC031092DB0381E0C1
:105800000E946D0D0E94EA1381E090E090931D01CB
:1058100080931C010E94F61968EC70E080E090E033
:105820000E942E0451C38DEF0E94560688E0C82EB8
:1058300082E0D82E0E945B0621E0C21AD108D1F77F
:105840007FCE2AEA31E040E050E068E087EF96E062
:105850000E949206B4E0FB2E853041F5E092FC06F2
:105860008091FC06C12CD12CE12CA0E4FA2E8230D0
:1058700019F0C12CD12C760120E030E0A90167E3BA
:1058800087EF96E00E949206A701960169E287EFF2
:1058900096E00E9492068823C1F00E946104601B7A
:1058A000710B613D774040F383E45BCE0E945B0661
:1058B0008093FB06FA94F110F9CF8A3A21F482E042
:1058C0008093FC06CDCF85E24CCE8091FC068230E1
:1058D000D1F420E030E0A9016AE387EF96E00E946E
:1058E0009206882311F087E33CCE0E945B06807C01
:1058F000803C19F483E08093FC060E945B060E94C2
:105900005B060E945B0687EF96E00E947D06E091B1
:10591000F806F091F90680E5808381E0818387EFC6
:1059200096E09093B1048093B00487ED96E00E94D6
:10593000A70B81E00E941B08882309F4CAC060EB12
:1059400074E087ED96E00E94530D882309F40FCE92
:105950008091D706807709F40ACE87ED96E0909380
:1059600076048093750480E00E946D0D61E089E00B
:105970000E94D803299811E01093880310928103A4
:1059800080E1809381001092800093E090937F03E8
:1059900024ED30E330937E0320937D033093870022
:1059A0002093860093E19093810028EE31E03093BC
:1059B00004012093030110936F008093810062E043
:1059C00081E10E94D80361E081E10E94AA0362E0C4
:1059D00080E10E94D80361E080E10E94AA0362E0B6
:1059E0008FE00E94D80361E08FE00E94AA0362E08A
:1059F0008EE00E94D80361E08EE00E94AA0362E07C
:105A000086E00E94D80361E086E00E94AA0362E07B
:105A100087E00E94D80361E087E00E94AA0370E05B
:105A200060E081E891E00E94851A64EF71E080E017
:105A300090E00E942E040E94AA1A0E94EA130E947B
:105A4000F61990E080E00E941A35882339F1982FEA
:105A5000991F9927991F90938D0386FF40C010933B
:105A60008B0385FF3FC091E090938C0380FF06C0BD
:105A700020EB34E0309313012093120181FF06C024
:105A800020E639E0309313012093120182FF06C013
:105A900080E19EE09093130180931201109286049E
:105AA000109287040E94B21864EF71E080E090E0E9
:105AB0000E942E041092E5038AEF90E0A0E0B0E08F
:105AC0008093180190931901A0931A01B0931B01C0
:105AD00054CD80E00E941B08811131CF48CD109237
