:100000000C943C040C9464040C9464040C946404F8
:100010000C9464040C9464040C9464040C946404C0
:100020000C9464040C9464040C9464040C946404B0
:100030000C9464040C94172A0C9464040C946404C7
:100040000C94AE280C9464040C9464040C94640422
:100050000C9464040C9464040C9464040C94640480
:100060000C94F8280C94640453746F7070656400E9
:100070002020202020202020202020202020202080
:10008000002500000000000000000000005F0000EC
:10009000000000000007000700000000147F147F2C
:1000A00014000000242A7F2A120000002313086491
:1000B0006200000036495522500000000005030090
:1000C000000000001C2241000000000041221C0032
:1000D00000000000082A1C2A0800000008083E084A
:1000E00008000000A06000000000000008080808E8
:1000F00008000000606000000000000020100804FC
:10010000020000003E5149453E00000000427F4091
:10011000000000006251494946000000224149495F
:10012000360000001814127F1000000027454545D6
:10013000390000003C4A49493000000001710905BE
:1001400003000000364949493600000006494929A4
:100150001E000000003636000000000000AC6C00FD
:1001600000000000081422410000000014141414C0
:10017000140000004122140800000000020151098F
:1001800006000000324979413E0000007E0909095D
:100190007E0000007F494949360000003E41414150
:1001A000220000007F4141221C0000007F49494994
:1001B000410000007F090909010000003E41415152
:1001C000720000007F0808087F000000417F4100A6
:1001D000000000002040413F010000007F08142281
:1001E000410000007F404040400000007F020C02C0
:1001F0007F0000007F0408107F0000003E41414165
:100200003E0000007F090909060000003E4151211F
:100210005E0000007F09192946000000264949496F
:100220003200000001017F01010000003F4040401A
:100230003F0000001F2040201F0000003F403840CA
:100240003F000000631408146300000003047804F6
:100250000300000061514945430000007F41410017
:1002600000000000020408102000000041417F004F
:100270000000000004020102040000008080808071
:1002800080000000010204000000000020545454CB
:10029000780000007F484444380000003844442877
:1002A00000000000384444487F0000003854545493
:1002B00018000000087E09020000000018A4A4A491
:1002C0007C0000007F08040478000000007D00002E
:1002D0000000000080847D00000000007F102844A2
:1002E00000000000417F4000000000007C04180472
:1002F000780000007C08047C00000000384444388A
:1003000000000000FC24241800000000182424FC35
:1003100000000000007C0804000000004854542441
:1003200000000000047F4400000000003C40407CCE
:10033000000000001C2040201C0000003C40304019
:100340003C00000044281028440000001CA0A07CB1
:10035000000000004464544C440000000836410092
:1003600000000000007F000000000000413608008F
:100370000000000002010102010000000205050268
:100380000000004572726F722052656164696E6789
:100390002046696C65004E6F7420545A5854617041
:1003A00065005A5854617065214572726F7220520F
:1003B000656164696E672046696C65004E6F7420E4
:1003C00041592046696C65005A584159454D554C74
:1003D0004572726F722052656164696E672046696A
:1003E0006C65004E6F74205545462046696C65006B
:1003F0005545462046696C6521545A584455494E26
:100400004F9D202D204C3A200049443F2000000001
:10041000035A58415946696C6520201A0B00C000E8
:10042000806E00000000250028002B000000000066
:10043000230026002900000000080002010000033C
:1004400004070000000000000000000000000000A1
:10045000000000000000000000000000000000009C
:10046000000000000000000000000000000000008C
:10047000000000000000000000000000000000007C
:10048000000000000000000000000000000000006C
:1004900000000000000000808080808080808080DC
:1004A000808080808080808080808080808080804C
:1004B000808080808080808080808080808080803C
:1004C00080808080808080000000000000000000AC
:1004D00000000080E0F0F8F8F8F8F8F08000000084
:1004E000000000808080808080808080808000008C
:1004F000008080808080808080F8F8F8F818000004
:10050000808080800000000000808080800000806B
:10051000B8B8B8980000FF010000008080C1E36413
:100520007434343434346464C4C4040404040404EB
:100530000404040480C0E060703030303030646403
:10054000C3C18000000000FF0000000000C0E0F018
:100550007C3E3F3F333130313F7FFFFFFFF8E0000B
:1005600000C0F0FFFFFF0F0300000000000038FF95
:10057000FFE7C3C0C040C0FCFFFF7F1F00007CFF3F
:10058000FFFFFFC3C04040E0FCFF7F0300E0FCFF33
:10059000FFFF03000000FF000000001F3F7060E04D
:1005A000C0C0C0C0C0C0E060713F1F0F00000000AD
:1005B0000000001F3F7060E0C0C0C0C0C0C0E0606D
:1005C000703F1F0F000000FF00000000000000004F
:1005D000000000000000000000000000000000001B
:1005E000000000000000000000000000000000000B
:1005F00000000000000000000000000000000000FB
:1006000000000000000000000000000000000000EA
:10061000000000000000070408080818181818183F
:10062000181818181818181818181818181818184A
:10063000181818181818181818181818181818183A
:1006400018181818180808070000000000002400F7
:1006500027002A000102040810204080010204083B
:1006600010200102040810200404040404040404FB
:1006700002020202020203030303030353746172C2
:1006800074696E672E2E004E6F20534420436172B2
:1006900064002E756566002E6179002E6F002E7045
:1006A000002E746170004572726F72204F70656E1B
:1006B000696E672046696C650050617573656420DA
:1006C000004E6F2046696C652053656C65637465E8
:1006D0006400506C6179696E672020202020202002
:1006E0002020004F6666202A202020202020202065
:1006F000202020004F6E20202A2020202020202093
:1007000020202020004772656D6C696E204C6F615F
:10071000646572004F6666202A2020202020202059
:1007200020202020004F6E20202A20202020202062
:1007300020202020200050617573652040205374D4
:10074000617274004F6666202A202020202020201D
:1007500020202020004F6E20202A20202020202032
:10076000202020202000547572626F20426F6F732A
:100770007400333630302042617564202A202020F6
:10078000202000333630302042617564003234302E
:10079000302042617564202A20202020200032343D
:1007A0003030204261756400313230302042617552
:1007B00064202A2020202020003132303020426165
:1007C0007564005453582042617564205261746509
:1007D000004772656D6C696E204C6F6164657200D4
:1007E00050617573652040205374617274005475B4
:1007F00072626F20426F6F737400545358204261CD
:1008000075642052617465004D656E752053637286
:1008100065656E00506C6179696E67005061757333
:10082000656420002020202020202020202020205F
:100830002020202000545A584475696E6F20312EB4
:1008400031364C454400506C6179696E67005061E7
:1008500075736564200053656C6563742046696C2C
:10086000652E2E00545A584475696E6F20312E3112
:10087000364C454400003E2A11241FBECFEFD8E07D
:10088000DEBFCDBF11E0A0E0B1E0E0E5F0E702C0DF
:1008900005900D92A835B107D9F727E0A8E5B1E09A
:1008A00001C01D92A531B207E1F714E0CCE3D4E01A
:1008B00004C02197FE010E94EF37CB33D107C9F75F
:1008C0000E949C2A0C9426380C940000CF92DF9250
:1008D000EF92FF928091B70190E0E0913802880F8B
:1008E000991FE80FF92FF11DEE0FFF1FE55CFD4F7B
:1008F000208131811092B60180914D0381111FC07A
:100900002115310509F4BFC037FF22C081E0809373
:10091000B5013F7790914603911180E080934603A3
:1009200081E08093B4019091B301913011F436FDD0
:1009300028C09091460391117EC0299829C0223089
:10094000310508F4A0C060E472E48FE090E03FC09D
:100950008091B401882331F08091B401813051F04D
:1009600080E0E1CF9091460381E0911180E0809397
:100970004603F6CF8091B5018111F2CF1092B401F8
:10098000D2CF35FD56C029982091B1013091B201E6
:10099000813009F055C09091500391114EC01092D2
:1009A00046038091B70190E0E0913802215031096F
:1009B000880F991FE80FF92FF11DEE0FFF1FE55C5F
:1009C000FD4F318320836CED75E080E090E09B016A
:1009D000AC012C5F3F4F4F4F5F4FA0EAB0E00E9449
:1009E000F0356B017C0124E130E040E050E00E94F2
:1009F000FB352115310581E04807510508F05FC03E
:100A000081E0809344033093430320934203809119
:100A100042039091430390938700809386008091D6
:100A20004403806180938100FF90EF90DF90CF902E
:100A30000895299AA9CF299AABCF80934603B1CFC5
:100A40008091B5018130D9F4A8EEB3E00E941D3643
:100A50001092B5012091B7012F5F2093B70120912B
:100A6000B701213408F4B3CF1092B70120913802B6
:100A700031E023272093380230930701A8CFB90132
:100A800090E080E0E7CF80914D0381115CCF8091B1
:100A9000B7018F5F8093B7018091B701813450F027
:100AA0001092B7018091380291E089278093380233
:100AB0009093070168EE73E080E090E088CF211505
:100AC000310588E04807510560F482E080934403D3
:100AD000C701B60120EA30E040E050E00E94FB355B
:100AE00092CF2115310580E44807510550F483E089
:100AF00080934403C701B60120E035E040E050E0B8
:100B0000EDCF21153105410581E0580750F484E00F
:100B100080934403C701B60120E034E140E050E097
:100B2000DDCF85E080934403211531054105544014
:100B300038F4C701B60120E030E540E050E0CECF08
:100B40008FEF9FEF909343038093420360CF08950C
:100B50000895833081F028F4813099F08230A9F033
:100B600008958730A9F08830C9F08430B1F48091BD
:100B700080008F7D03C0809180008F7780938000FC
:100B8000089584B58F7784BD089584B58F7DFBCF9C
:100B90008091B0008F778093B00008958091B0006D
:100BA0008F7DF9CFCF93DF93282F30E0F901EA5CF6
:100BB000FB4F8491F901EC5AF94FD491F901E859AE
:100BC000F94FC491CC23A1F081110E94A905EC2F0B
:100BD000F0E0EE0FFF1FE45DFB4FA591B491EC91A7
:100BE000ED2381E090E009F480E0DF91CF9108955A
:100BF00080E090E0FACF1F93CF93DF93282F30E06F
:100C0000F901EA5CFB4F8491F901EC5AF94FD49158
:100C1000F901E859F94FC491CC23A9F0162F81119D
:100C20000E94A905EC2FF0E0EE0FFF1FEE5DFB4FD9
:100C3000A591B4918FB7F894EC91111108C0D0959B
:100C4000DE23DC938FBFDF91CF911F910895DE2BC0
:100C5000F8CFCF93DF9390E0FC01EC5AF94F249149
:100C60008859994FFC0184918823D1F090E0880F36
:100C7000991FFC01E65BF94FA591B491FC01EE5D73
:100C8000FB4FC591D491623071F49FB7F8943C91B9
:100C9000822F809583238C93E8812E2B28839FBFFE
:100CA000DF91CF9108958FB7F894EC912E2B2C9370
:100CB0008FBFF6CF3FB7F894809128029091290218
:100CC000A0912A02B0912B0226B5A89B05C02F3F08
:100CD00019F00196A11DB11D3FBFBA2FA92F982F62
:100CE0008827BC01CD01620F711D811D911D42E05D
:100CF000660F771F881F991F4A95D1F708958F9225
:100D00009F92AF92BF92CF92DF92EF92FF926B01D0
:100D10007C010E945A064B015C01C114D104E1041C
:100D2000F104B9F00E945A06681979098A099B09E9
:100D3000683E73408105910580F321E0C21AD10815
:100D4000E108F10888EE880E83E0981EA11CB11C12
:100D5000E4CFFF90EF90DF90CF90BF90AF909F9047
:100D60008F9008952FB7F894609124027091250216
:100D700080912602909127022FBF089520910002B2
:100D8000260F3327331F21323105ECF42091600404
:100D9000FC0190E080E0243069F082E00895A091A9
:100DA00000022191AC0140525E4FA40FB52FB11D3E
:100DB0002C930196861798F380910002680F609338
:100DC000000280E0089581E008951092600481E0BF
:100DD00080935F0410923A0461E082E10E94FB0577
:100DE00061E083E10E94FB05E9EBF0E080818E7F0A
:100DF000808380818D7F808388E48093B80085E440
:100E00008093BC000895CF93DF9391E09093DF012E
:100E10008823B9F0C091B800D091BA008091BC008D
:100E20008A7B8093BC0060E082E10E94FB0560E069
:100E300083E10E94FB050E94E506D093BA00C093AF
:100E4000B800DF91CF910895CF92DF92EF92FF9299
:100E50000F931F93CF93DF93D091890481E0D13218
:100E600008F09CC0C09188040E945A066B017C0166
:100E70008091600481116CC082E08093600481E005
:100E800080935F048FEF80935E0410925D04D09393
:100E90005C04A8E6B4E0ECE3F4E080E0D8138DC095
:100EA00010923B0480913B04CC0FC82BC0933B04B1
:100EB00080913A04813009F084C010923A040E9473
:100EC0005A066B017C0180913B048093BB008091AA
:100ED000620490916304A0916404B0916504892B2D
:100EE0008A2B8B2BA1F00E945A060091620410916C
:100EF000630420916404309165046C197D098E09A6
:100F00009F09061717072807390708F442C0809180
:100F1000BC0083FDD8CF85EC8093BC000E945A06AC
:100F20006B017C0180916004823009F44CC0809197
:100F30005E048F3F09F469C080915E04803209F439
:100F400066C080915E04803309F463C084E026C0EB
:100F50008091620490916304A0916404B09165044F
:100F6000892B8A2B8B2B09F483CF0E945A06009180
:100F700062041091630420916404309165046C193B
:100F80007D098E099F09061717072807390708F0FA
:100F90006FCF809161040E94030785E0109267047F
:100FA0001092890410926604DF91CF911F910F91E6
:100FB000FF90EF90DF90CF9008959D9191938F5F78
:100FC0006DCF85EEA9CF8091620490916304A091CA
:100FD0006404B0916504892B8A2B8B2B09F4A2CF72
:100FE0000E945A06009162041091630420916404E7
:100FF000309165046C197D098E099F090617170742
:101000002807390708F08ECFC4CF80E0C7CF82E031
:10101000C5CF83E0C3CF0895E091310280913002C3
:10102000E81730F4F0E0E154FE4F808190E008953D
:101030008FEF9FEF089590913102809130022FEF52
:101040003FEF981748F4E92FF0E0E154FE4F20817C
:1010500030E09F5F90933102C90108958091300282
:1010600090913102891B990B0895CF92DF92EF92F4
:10107000FF920F931F93CF93DF937C01CB018A01E3
:1010800020916604222389F0EB016B01C40ED51E6A
:10109000CC15DD0569F06991D701ED91FC910190C6
:1010A000F081E02DC7010995F3CF642F0E94BE06A1
:1010B000C801DF91CF911F910F91FF90EF90DF90CA
:1010C000CF900895CF93DF931F92CDB7DEB769839A
:1010D000209166042223F9F020918904203258F0EF
:1010E00021E030E0FC013383228390E080E00F9028
:1010F000DF91CF91089580916704E82FF0E0E859DF
:10110000FB4F998190838F5F80936704809389045C
:1011100081E090E0ECCF61E0CE0101960E94BE0636
:10112000F7CF0895CF93DF93EC01E981FA819081A5
:1011300081819CBD8DBDE981FA8160E082810E9440
:10114000FB0581E08B83DF91CF9108958EBD0DB4B7
:1011500007FEFDCF08958FEF8EBD0DB407FEFDCFC6
:101160008EB508950F931F93CF93DF93EC010E94E8
:10117000B2068B010E94AB088F3F69F00E94B20655
:10118000601B710BC617D707A8F780E0DF91CF91DE
:101190001F910F91089581E0F9CFCF93DF93FC0168
:1011A0002381222361F0EC010180F281E02D61E0D6
:1011B00082810E94FB058FEF0E94A6081B82DF91AF
:1011C000CF910895DF92EF92FF920F931F93CF93E9
:1011D000DF938C01C62FD22FF32EE42ED52EFC01E7
:1011E0008381811103C0C8010E949208CC2321F0A1
:1011F0008CE291E00E94B2088C2F80640E94A608C5
:101200008D2D0E94A6088E2D0E94A6088F2D0E946B
:10121000A6088D2F0E94A60887E8C11101C085E9A4
:101220000E94A6080E94AB08CBE00E94AB08F80120
:10123000848387FF02C0C150C1F7DF91CF911F9116
:101240000F91FF90EF90DF9008950F931F93CF932E
:10125000DF93EC0189018D81833039F089E0440FFF
:10126000551F661F771F8A95D1F79A01AB0168E178
:10127000CE010E94E208882319F082E3888339C0F6
:101280008EEF0E94A608F80180818EBD8181329682
:101290001E5F0DB407FEFDCF8EBDE017F10711F004
:1012A0008191F7CF0DB407FEFDCF8FEF0E94A60806
:1012B0008FEF0E94A6080E94AB088C838F71853047
:1012C00099F480ED97E00E94B208182F8AE5112367
:1012D000A9F220E030E0A9016DE0CE010E94E20811
:1012E000882361F089E2CACF87E58883CE010E9416
:1012F000CD08CE010E94CD0810E007C00E94AB08C7
:101300008111F0CFCE010E94CD08812FDF91CF91C6
:101310001F910F910895EF92FF920F931F93CF9318
:10132000DF93EC0179018D81833039F089E0440F3E
:10133000551F661F771F8A95D1F79A01AB0161E1AE
:10134000CE010E94E208882339F080E38883CE0131
:101350000E94CD0880E037C00E94B2068B010E9437
:10136000AB088C838F3F69F40E94B206601B710B3F
:10137000693E7340A0F385E58883CE010E94CD08C5
:10138000E6CF8E3F11F080E5F7CF8FEF8EBDF701EE
:10139000D701A150BE4F9FEF0DB407FEFDCF8EB514
:1013A0009EBD8193AE17BF07B9F70DB407FEFDCF01
:1013B0008EB58C931C820E94AB080E94AB08CE01B4
:1013C0000E94CD0881E0DF91CF911F910F91FF9096
:1013D000EF900895EF92FF921F93CF93DF93FC015C
:1013E000208111E020FF14C0EC017C01F7E0EF0E3A
:1013F000F11C4B815C816D817E81E981FA819701CD
:10140000808191810E942509182F811108C010E068
:10141000812FDF91CF911F91FF90EF9008958881E8
:1014200081FD04C088818E7F8883F2CFE981FA81B3
:101430004B815C816D817E8184859585A685B7858C
:10144000480F591F6A1F7B1F9701808191810E945D
:1014500025098111E7CFDBCFCF92DF92EF92FF9288
:101460001F93CF93DF93EC016A017B01122F8B81D5
:101470009C81AD81BE818C159D05AE05BF05B1F087
:10148000CE010E94EA0981110AC090E080E0DF915C
:10149000CF911F91FF90EF90DF90CF90089512FFB2
:1014A0000CC01882CB82DC82ED82FE8213708881B0
:1014B000182B1883CE010796EACFE981FA819E01A5
:1014C000295F3F4FB701A601808191810E948B095E
:1014D0008111E7CFDACF8F929F92AF92BF92CF92D6
:1014E000DF92EF92FF920F931F931092CA0441E094
:1014F00050E060E070E04093CD045093CE046093E0
:10150000CF047093D00425EC34E03093E7042093AB
:10151000E6041092E5044FEF5FEFBA014093E80450
:101520005093E9046093EA047093EB04882309F470
:1015300050C020E040E050E0BA0185EE94E00E9407
:101540002C0A009761F480E01F910F91FF90EF90BB
:10155000DF90CF90BF90AF909F908F900895FC0147
:10156000E254FE4F20812F7771F78A539E4FFC0182
:10157000C080D180E280F380C114D104E104F10481
:1015800011F320E0B701A60185EE94E00E942C0A39
:10159000FC01892BC1F2838594858115924099F6CF
:1015A0008089823081F686859785892B61F2258531
:1015B0002093C7048FEF820F8093C80480E091E0EE
:1015C000291769F08F5F893041F488E08093C9045E
:1015D000BACFC12CD12C7601D4CF990FF1CF809303
:1015E000C9044689578970E060E04115510521F42E
:1015F00044A155A166A177A14093D1045093D20490
:101600006093D3047093D40426853785460157012F
:10161000820E931EA11CB11C8092D9049092DA0410
:10162000A092DB04B092DC04218932893093CC048F
:101630002093CB04440F551F661F771F480D591D7B
:101640006A1D7B1D4093E1045093E2046093E30420
:101650007093E40421893289A5E0220F331FAA95F3
:10166000E1F721503E4F232F33272695420F531F7A
:10167000611D711D4093D5045093D6046093D70427
:101680007093D8040389148930E020E00115110516
:1016900021F400A111A122A133A1C41AD50AE60A9E
:1016A000F70AC00ED11EE21EF31E04C0F694E794A2
:1016B000D794C7948A95D2F7D701C6010196A11D88
:1016C000B11D8093DD049093DE04A093DF04B093FA
:1016D000E00485EFC8168FE0D806E104F10420F499
:1016E0008CE08093CA042FCF80E125EFC2162FEF44
:1016F000D206E104F10468F084A595A5A6A5B7A5D6
:101700008093E1049093E204A093E304B093E40493
:1017100080E28093CA0481E017CF8F929F92AF92AC
:10172000BF92CF92DF92EF92FF920F931F934230BE
:1017300051056105710560F480E01F910F91FF90E4
:10174000EF90DF90CF90BF90AF909F908F900895D3
:10175000FC01C08CD18CE28CF38CC416D506E60655
:10176000F70650F3480159016A017B0185818032F7
:1017700041F584899589A689B78917E0769567959B
:10178000579547951A95D1F7480F591F6A1F7B1F28
:1017900023E0CF0180960E942C0A009769F2E8941A
:1017A000C7F8DD24EE24FF24CC0CDD1CCC0CDD1CA2
:1017B0008C0D9D1DFC0180829182A282B38281E00A
:1017C000BCCF803109F0B8CF4489558966897789C3
:1017D0004D0D511D611D711D23E0CF0180960E94AA
:1017E0002C0A009709F4A8CFDD24EE24FF24CC0CAA
:1017F000DD1CC80ED91EF60111830083E0CFCF9205
:10180000DF92EF92FF920F931F93CF93DF934230BB
:1018100051056105710550F48FEFDF91CF911F9154
:101820000F91FF90EF90DF90CF900895FC01C08C56
:10183000D18CE28CF38CC416D506E606F70660F36D
:1018400089016A017B01EC0185818032B9F58489C7
:101850009589A689B789E7E0769567955795479565
:10186000EA95D1F7480F591F6A1F7B1F22E0CE016E
:1018700080960E942C0A009779F2E894C7F8DD243C
:10188000EE24FF24CC0CDD1CCC0CDD1C8C0D9D1D2E
:10189000FC0180819181A281B381BF70488D598DF7
:1018A0006A8D7B8D481759076A077B0738F1F80165
:1018B00080839183A283B38381E0AFCF803109F02D
:1018C000ABCF44895589668977894D0D511D611DBE
:1018D000711D22E0CF0180960E942C0A009709F426
:1018E0009BCFDD24EE24FF24CC0CDD1CC80ED91EBA
:1018F000F60180819181B0E0A0E0D0CF80E08DCF73
:101900000F931F93CF93DF938C01EB01FC0144896C
:101910005589668977898681978120E080960E9423
:101920002C0A009709F443C0F801A481B581AF7077
:10193000BB2725E0AA0FBB1F2A95E1F7A80FB91F07
:101940001097A9F1AD0138E070E080E06EE2FA0195
:101950009191AF019032F1F0883039F49E01270F58
:10196000311DF90160837F5F30E18A010150110967
:10197000F80190812FEB290F2A3130F41C962C911D
:101980001C97232309F0905E8E01070F111DF801AB
:1019900090837F5F8F5F8B30D1F6FE01E70FF11DE3
:1019A000108281E0DF91CF911F910F91089580E027
:1019B000F9CFFC019C01255F3F4F80E080FB8795BC
:1019C00087F99191890F2E173F07C1F70895CF939B
:1019D000DF93FC012081211104C081E0DF91CF91D0
:1019E0000895EC01828182FF39C044895589668956
:1019F00077898681978121E080960E942C0A009742
:101A000029F489818160898380E0E8CFEC81FD81C0
:101A1000EF70FF2725E0EE0FFF1F2A95E1F7E80F93
:101A2000F91F309771F38081853E59F3888183FFD8
:101A300008C0888D998DAA8DBB8D848F958FA68FB8
:101A4000B78F8C8D9D8D938F828F8C8D9D8DAE8D5C
:101A5000BF8DB58BA48B8A818B7F8A838E819F817A
:101A600080960E94EA09882361F2B7CF4F925F9275
:101A70006F927F928F929F92AF92BF92CF92DF929E
:101A8000EF92FF920F931F93CF93DF93EC014A01E4
:101A90005B014C845D846E847F84A881AA2309F451
:101AA00086C0488959896A897B89481559056A051C
:101AB0007B0569F081149104A104B10451F41C86E2
:101AC0001D861E861F86888A998AAA8ABB8A81E01B
:101AD00073C0A3FF59C0088D198D2A8D3B8D081541
:101AE00019052A053B0508F462C0EE81FF81848157
:101AF00090E009968A019B010150110921093109E1
:101B0000082E04C036952795179507950A94D2F7A5
:101B100075016401B1E0CB1AD108E108F10804C0F5
:101B2000F694E794D794C7948A95D2F7C016D10655
:101B3000E206F30628F0452B462B472B09F052C04E
:101B4000A6FF4BC0848D958DA68DB78D8C879D8704
:101B5000AE87BF878E01045F1F4FC114D104E1041B
:101B6000F10409F4B0CF4C855D856E857F859801C1
:101B70008E819F810E94FF0B91E0C91AD108E10874
:101B8000F108181654F313C0A5FFAFCFEE81FF8103
:101B90008681978125E0880F991F2A95E1F7B0E0AB
:101BA000A0E088159905AA05BB0508F08CCF4C86E6
:101BB0005D866E867F8680E0DF91CF911F910F91C9
:101BC000FF90EF90DF90CF90BF90AF909F908F905D
:101BD0007F906F905F904F9008958C8D9D8DAE8D0E
:101BE000BF8DB4CFC01AD10AE20AF30AB3CFCF93A4
:101BF000DF93EC010E94E70C1882DF91CF910895EA
:101C00003F924F925F926F927F928F929F92AF928C
:101C1000BF92CF92DF92EF92FF920F931F93CF93D9
:101C2000DF9300D000D0CDB7DEB74C01FC0182813C
:101C300084608283A680B7804484558466847784D8
:101C4000F501C084D184E284F384C414D504E6048D
:101C5000F70410F011E003C07301620110E0FFEF20
:101C6000CF1ADF0AEF0AFF0AF501808D918DA28D50
:101C7000B38D8C159D05AE05BF0538F4111131C02B
:101C8000C084D184E284F384E5CF4C145D046E04F7
:101C90007F0439F19E012F5F3F4FB701A601C501B7
:101CA0000E94FF0B87FD1DC08823C9F289819A819C
:101CB000AB81BC81892B8A2B8B2B89F6112329F0D0
:101CC000F501C086D186E286F3860FEF1FEF2FEF76
:101CD0003FE0B701A601C5010E948D0B382E81118E
:101CE00018C0312C832D0F900F900F900F90DF9123
:101CF000CF911F910F91FF90EF90DF90CF90BF9009
:101D0000AF909F908F907F906F905F904F903F909B
:101D10000895411451046104710431F4F401C4863E
:101D2000D586E686F786DECF97018601B301A2014C
:101D3000C5010E948D0B8111F1CFD3CF8091A701F6
:101D4000909152039130B9F4813071F028E730E07E
:101D500030930601209305018823A1F08091A7010B
:101D600081508093A701089584EF91E0909306013C
:101D700080930501F3CF20EA30E0813049F782EA11
:101D800095E0F4CF8091AF0187FF12C083E180938B
:101D9000A7018091AF01880F8093AF018091B001BE
:101DA00081508093B0011092060110920501D6CFA8
:101DB00089E0EDCF80919C0190919D019093060167
:101DC0008093050180919A0190919B0101979093D6
:101DD0009B0180939A01892B19F485E08093480335
:101DE000089580E18093810081E080934D0385EA2E
:101DF00094E00E94F70D1092490310924A0310924A
:101E00004B0310924C031092AA01109240031092BF
:101E1000B3010895BC0190E080E00E94413720E0CA
:101E200030E040E650E40E94993620E030E040E0A7
:101E30005FE30E942D360E941237CB0108950F9365
:101E40001F93CF93DF93C82F81E0809366048CE3C8
:101E500080938804109267041092890460E48CE8EF
:101E600094E00E946208C052DD0B83E0CC0FDD1FBE
:101E70008A95E1F7CD57DF4F10E000E0FE01E00F5B
:101E8000F11F64918CE894E00E9462080F5F1F4F7D
:101E90000830110599F7DF91CF911F910F910C94A4
:101EA0002407CF93C82F81E0809366048CE380934E
:101EB0008804109267041092890460E48CE894E02E
:101EC0000E9462086C2F8CE894E00E946208CF9117
:101ED0000C9424070F931F93CF93DF93EC01888119
:101EE0008823C1F010E000E0E881E052FF0B83E0BE
:101EF000EE0FFF1F8A95E1F7E00FF11FED57FF4F3F
:101F000084910E94510F0F5F1F4F0830110561F738
:101F10002196E5CFDF91CF911F910F910895CF9337
:101F2000C82F81E0809366048CE38093880410922C
:101F300067041092890460E88CE894E00E946208CB
:101F40006C2F8CE894E00E946208CF910C942407D7
:101F5000CF93C82F80EB860F0E948F0F8C2F880F96
:101F6000880F880F88700E948F0F28E0C29FC001E1
:101F7000112424E0959587952A95E1F78F70805F6D
:101F8000CF910C948F0FCF93DF93C0E06C2F80E044
:101F90000E94A80FD0E080E00E94510FDF5FD03890
:101FA000D1F7CF5FC43091F7DF91CF9108950F93B0
:101FB0001F93CF93DF93EC01862F642F0E94A80F0D
:101FC00088818823D1F010E000E0E8810E2E000C1B
:101FD000FF0BB09783E0EE0FFF1F8A95E1F7E00F4C
:101FE000F11FED57FF4F84910E94510F0F5F1F4F5C
:101FF0000830110551F72196E3CFDF91CF911F9162
:102000000F910895CF93C091370260E088E0CA3005
:1020100050F40E94A80F80E38C0F0E941F0F85E2EE
:10202000CF910C941F0FC43658F40E94A80F8C2F28
:102030006AE00E94CF37C92F805D0E941F0FEBCF4F
:102040000E94A80F81E30E941F0F80E30E941F0FD0
:1020500080E3E3CF0F931F93CF938C01C62F80E0D3
:102060000E94A80F84E391E00E946A0F6C2F80E029
:102070000E94A80FC801CF911F910F910C946A0F75
:1020800004960C94E70C40E050E0BA010C94360D35
:1020900090E080E00895CF92DF92EF92FF920F934D
:1020A0001F93CF93DF93FC0180E2DF011D928A959D
:1020B000E9F7EB01AE81BF81B783A68355834483E3
:1020C000CC8CDD8CEE8CFF8CC086D186E286F386CC
:1020D0004F705527ED01A79695E0440F551F9A952F
:1020E000E1F7BE01640F751FEB018B8583FD49C0CD
:1020F000CD01840F951FEC018AA987718083EB01C4
:102100009B85987111F488608083238381E08283AA
:1021100093960D911D912D913C919697048B158B63
:10212000268B378BA40FB51FDB964D915C91DC9706
:1021300070E060E0BA0155274427ED01CF5BDF4F27
:102140000881198130E020E0402B512B622B732B4A
:10215000448F558F668F778FAD5BBF4F8D919D916B
:102160000D90BC91A02D808F918FA28FB38F81E0B5
:10217000DF91CF911F910F91FF90EF90DF90CF9063
:102180000895108280E0F4CFFC01808181110FC09E
:1021900080E2DF01982F1D929A95E9F77783668395
:1021A000DB0115969C91903129F0903211F080E07E
:1021B000089580E4808381E082830895CF93C82FBF
:1021C0008CEE96E00E94F70D65EC74E08CEE96E0E4
:1021D0000E94C410882369F0CC2359F08091EC064A
:1021E000807749F08CEE96E090938B0480938A047C
:1021F0008C2FCF91089580E0FCCF2F923F924F9289
:102200005F926F927F928F929F92AF92BF92CF9286
:10221000DF92EF92FF920F931F93CF93DF93EC0126
:102220005B014A01888183FFC5C08A8181FFC2C0EA
:1022300083FDB7C0A40170E060E088899989AA890C
:10224000BB8980959095A095B09584179507A607B2
:10225000B70708F4AFC064011E018CE0280E311CE2
:10226000088919892A893B89C114D10409F4E1C07C
:102270008E819F81B901A80129E0769567955795D0
:1022800047952A95D1F7DC011396FC90F422117042
:10229000F1101BC04C855D856E857F85011511058C
:1022A00009F0F4C0411551056105710509F488C0B4
:1022B00091010E94FF0B87FD7DC0811106C0CE01F8
:1022C0000E94000E882309F475C0EE81FF814C85C1
:1022D0005D856E857F854250510961097109848150
:1022E00004C0440F551F661F771F8A95D2F7808957
:1022F0009189A289B389840F951FA61FB71FAC01CE
:10230000BD014F0D511D611D711D0115110529F4F0
:10231000C114B2E0DB0608F06EC080E092E0801BE2
:10232000910B76018C159D0508F47C0101151105B2
:1023300071F4488859886A887B88888D998DAA8D20
:10234000BB8D25E0481659066A067B0608F421E095
:10235000CF0180960E942C0A009761F1A701B50178
:10236000800F911F0E9402380E0D1F1D0115124093
:1023700039F48E819F8180960E94EA098823D1F0EA
:1023800088899989AA89BB898E0D9F1DA11DB11DC0
:10239000888B998BAA8BBB8BAE0CBF1CCE18DF0829
:1023A0005FCF488D598D6A8D7B8DCE010E94360D91
:1023B000811140CF8981816089838FEF9FEF4DC06C
:1023C0008C8D9D8DAE8DBF8D0097A105B10571F4EB
:1023D000CE010E94000E882369F38C859D85AE8511
:1023E000BF858C8F9D8FAE8FBF8F6FCF8C879D8762
:1023F000AE87BF876ACF83A194A1A5A1B6A14817D4
:1024000059076A077B0741F410A28FEF9FEFDC01A9
:1024100083A394A3A5A3B6A3EE81FF819501808138
:1024200091810E942509882329F2E12C82E0F82E6F
:10243000A7CF888D998DAA8DBB8D80179107A20794
:10244000B30738F48A81088F198F2A8F3B8F8460F5
:102450008A838A8187FD14C0C401DF91CF911F91C7
:102460000F91FF90EF90DF90CF90BF90AF909F9033
:102470008F907F906F905F904F903F902F90089536
:10248000CE010E94E70C8111E7CF94CFFC014250AE
:10249000510961097109848104C0440F551F661FE9
:1024A000771F8A95D2F780899189A289B389480FCD
:1024B000591F6A1F7B1F31CF04960C94FD10CF93D8
:1024C000DF931F92CDB7DEB7698341E050E0BE01D4
:1024D0006F5F7F4F04960E94FD100F90DF91CF91A8
:1024E00008954F925F926F927F928F929F92AF92D8
:1024F000BF92CF92DF92EF92FF920F931F93CF93F1
:10250000DF93EC015B018A018881882309F4C1C053
:102510009A8190FFBEC083FF16C0888D998DAA8DC9
:10252000BB8D488959896A897B89841B950BA60BC9
:10253000B70BA80170E060E0481759076A077B07EE
:10254000A0F08C0112C085FF10C0EE81FF81868152
:10255000978155E0880F991F5A95E1F728893989A5
:10256000821B930B8017910760F378012E012CE0FA
:10257000420E511C612C42E0742EE114F10409F466
:10258000B5C088899989AA89BB894C0121E092222A
:102590002881EE81FF81AC01BD0139E07695679518
:1025A000579547953A95D1F725FF29C0848D958D8C
:1025B000A68DB78D480F591F6A1F7B1FEE81FF81C3
:1025C0008114910409F06BC0E11482E0F80608F46C
:1025D00066C083A194A1A5A1B6A1481759076A07AF
:1025E0007B0709F45CC09501808191810E948B0971
:1025F000882309F44EC0C12C82E0D82E66C0D38057
:10260000D4228114910481F4D1100EC0892B8A2B1D
:102610008B2B81F526FF29C0848D958DA68DB78DD6
:102620008C879D87AE87BF87EE81FF814C855D8556
:102630006E857F854250510961097109848104C00A
:10264000440F551F661F771F8A95D2F7808991899D
:10265000A289B389840F951FA61FB71FAC01BD01C6
:102660004D0D511D611D711DA9CF8C8D9D8DAE8DA0
:10267000BF8DD6CF4C855D856E857F859201CF015C
:102680000E94FF0B87FD05C08111CECF8881807726
:1026900069F58981826089838FEF9FEF2AC0C3012A
:1026A0008819990967018E159F0508F46C0120E0CF
:1026B000CF0180960E942C0A009759F3BC01680D47
:1026C000791DA601C5010E940238AC0CBD1C888989
:1026D0009989AA89BB898C0D9D1DA11DB11D888B6F
:1026E000998BAA8BBB8BEC18FD0847CFC8018E19BC
:1026F0009F09DF91CF911F910F91FF90EF90DF9095
:10270000CF90BF90AF909F908F907F906F905F9091
:102710004F900895EF92FF920F931F93CF93DF9303
:102720001F92CDB7DEB77C01962FF7014089518902
:10273000628973898A019B0185E0369527951795F3
:1027400007958A95D1F70F7011F091112BC041E0D8
:1027500050E0BE016F5F7F4FC7010E947112813050
:1027600051F090E080E00F90DF91CF911F910F9199
:10277000FF90EF900895F70180899189A289B3892C
:102780004F96A11DB11D808B918BA28BB38BF7014E
:10279000868197818796F0E20F9F90011124820F26
:1027A000931FE1CF405E5F4F6F4F7F4F408B518B48
:1027B000628B738BECCF2F923F924F925F926F920E
:1027C0007F928F929F92AF92BF92CF92DF92EF92C1
:1027D000FF920F931F93CF93DF9300D01F92CDB73B
:1027E000DEB77C017B836A83FA016115710509F408
:1027F000E5C0DB018C91807709F4E0C0D7018C91B2
:102800008111DCC0C180D280808183708824839450
:10281000882349F0C6010C966DE070E00E94DB371A
:1028200088248394860E8F018A819B810E944310A5
:102830001982212C312C912C5801B6E0AB0EB11C21
:10284000EA81FB81408851886288738861E0CF010A
:102850000E948A13009709F4B1C0DC012C91253E37
:1028600009F4A6C0222309F4C0C0381470F12E3236
:1028700051F1FC0133853F3009F05DC0911027C054
:1028800026FFDECF2F71922EF585F983222EE22DC1
:10289000E150FF0BAF01FDE0F49F9001F59F300D7B
:1028A00011242C153D0578F4FC01712C64E06715AA
:1028B000B0F081819281C216D306D1F4892B19F42C
:1028C000BFCF253EA1F6912CBBCF312CD0CF2A947F
:1028D0002211F9CF2585B9812B17C9F2F4CF8AE0EF
:1028E000871518F084819581E6CF86819781E3CFA3
:1028F0008F3F910509F038F74FEB480F4A3108F444
:10290000805EB9016F5F7F4FD80113964D915C9146
:10291000240F351FD9019C912FEB290F2A3108F480
:10292000905E9813D0CF73943296BDE07B1609F475
:1029300087CF9B01BBCF33FDC6CF992061F1E1E08A
:102940002E123CC00E94D90CF981F81337C0B30194
:10295000A20185E076956795579547958A95D1F7B9
:10296000292D6A817B81C7010F900F900F90DF9115
:10297000CF911F910F91FF90EF90DF90CF90BF907C
:10298000AF909F908F907F906F905F904F903F900F
:102990002F900C944B104BE050E0B5010E94F5379E
:1029A000892B09F04DCFD8018C9180FD49CFCFCF35
:1029B000381408F088CF3394211183CF80E00F9032
:1029C0000F900F90DF91CF911F910F91FF90EF909B
:1029D000DF90CF90BF90AF909F908F907F906F903F
:1029E0005F904F903F902F900895381420F3E6CFDA
:1029F0002F923F924F925F926F927F928F929F920F
:102A0000AF92BF92CF92DF92EF92FF920F931F93FC
:102A1000CF93DF93CDB7DEB7E7970FB6F894DEBF5D
:102A20000FBECDBF7C018A0119821A82DC018C9114
:102A30008823D1F080E0E7960FB6F894DEBF0FBE92
:102A4000CDBFDF91CF911F910F91FF90EF90DF905D
:102A5000CF90BF90AF909F908F907F906F905F903E
:102A60004F903F902F9008956115710519F3FB0168
:102A700080818077F9F2DA018C91FA018F3209F4C2
:102A8000A2C0FE01F296FFABEEABF8019F012F5FF3
:102A90003F4F8081803209F4AEC0FDA3ECA39F01BB
:102AA000A9014E1B5F0B8901D9018D919D018823DE
:102AB00071F08F3209F0A1C0CF01840F951F8C01F6
:102AC000DC012D91CD012032D1F32F32C1F3DA0197
:102AD000AE0FBF1FAD014E1B5F0BEA17FB0709F4DA
:102AE000A6C08E918E32B1F38032A1F34F3F5105D3
:102AF00011F00CF09FCF5BA34AA3DE0197966D0106
:102B000080E28D93AEA8BFA8AA16BB06D1F7DF015D
:102B1000CD018E1B9F0B2D912E32D1F32032C1F3AC
:102B200077247394009709F0712C9A012150310990
:102B30005F01A40EB51E2F3F320709F07BC08EA0A7
:102B4000512CB7E0BAAB312C612CA8E04A2E841787
:102B500095070CF0AEC0DF01A80FB91FAC90ADAA6D
:102B6000AA2DA03209F4A3C0AE3221F48217930734
:102B700009F09DC09DA8B92DB232A9F0BC3799F0DB
:102B8000BA52B63018F4A92DAD3269F4BDA9BA53C2
:102B9000B63048F0BDA9BB55B33028F0BDA9B1523D
:102BA000BE3508F451C08217930709F0C1C08AA945
:102BB0008A3009F4C8C0C901BAE0BAABA8E03A2E1D
:102BC000B0E14B2E60C08F0181918F32E1F3DB01C8
:102BD00016966D917C91811104C0C7010E94C410AA
:102BE0002ACFCE0101960E94C410BE016F5F7F4FB5
:102BF000811147CF1FCFF90149CF8C3509F41ACF86
:102C0000982F977F923209F415CF8A3309F412CFA7
:102C1000982F9F7B9C3309F40DCF92EC980F923044
:102C200008F408CF80528F3508F43ACF03CF50E034
:102C300040E061CFD5019E905D01BEE29B1609F494
:102C40007ECF2150310977CF8217930709F4AFCF98
:102C5000BAA9B31508F470C0BDA9B156BA31D0F401
:102C6000ADA9A052ADAB542822242394230C5601C5
:102C7000A30CB11CD501ADA8AC92A6E0BA2E322CA3
:102C8000B21408F0822C019662CF712CBFE5BDAB67
:102C9000BFE59B2EBFEBB90DBA3130F76428E4CF06
:102CA000C901AAE0AAABA8E03A2EB0E14B2E712CE4
:102CB000EACF8EA28FA1803209F4BCCE772011F129
:102CC000852D862111F082E0582E59A2F8018081CD
:102CD000AE014F5D5F4F882339F1C7010E94DB13BE
:102CE000882309F4A7CE80E2F701DE011196019056
:102CF0000D928A95E1F7C7010E94F70DBE016F5F43
:102D00007F4FC3CE81E089A3912CF601E80DF91D18
:102D10008EE78083E8E2F0E0EC0FFD1F8E0E9F1E31
:102D200081E3D4018C93D2CFC7010E94DB1383CE01
:102D3000AAA9A31508F0A9CFBAA9BA3021F028177B
:102D400039070CF0ADCF8EA2712CB4CFCF93DF93A7
:102D5000CDB7DEB7A0970FB6F894DEBF0FBECDBFDC
:102D600019821A82FC0120812F3279F421812111EC
:102D70000CC081E00E94DE10A0960FB6F894DEBF72
:102D80000FBECDBFDF91CF910895AC016CEE76E020
:102D9000CE0101960E94F814882371F399819077EF
:102DA000A1F090E2FE013196ACEEB6E001900D92FA
:102DB0009A95E1F79091EC069077F1F22CEE36E0DF
:102DC00030938B0420938A04D7CF80E0D5CFCF9265
:102DD000DF92EF92FF920F931F93CF93DF93209197
:102DE000A504211115C0009799F0FC0120812077DE
:102DF00079F040895189628973894F715527662717
:102E000077278C01C0E0D0E0452B462B472B59F0AB
:102E100080E0DF91CF911F910F91FF90EF90DF90B5
:102E2000CF900895C0E0F801C088D188E288F38887
:102E300060E0C8010E948A13009751F3FC012081D1
:102E4000222331F32E3271F3253E61F3338533FDB6
:102E50001DC0CC2321F00E94D90C8D13D9CFB7010E
:102E6000A60185E076956795579547958A95D1F7A0
:102E70002C2FB80185EA94E0DF91CF911F910F913B
:102E8000FF90EF90DF90CF900C944B103F3051F6B5
:102E900026FFC9CFC22FCF71D585C5CFCF93DF9382
:102EA00080918A0490918B040E94431010925403E5
:102EB00010925303C0918A04D0918B04CE010E94DA
:102EC000E716882371F085EA94E00E94F70D80915F
:102ED00053039091540301969093540380935303AA
:102EE000E9CFCE01DF91CF910C9443102F923F9206
:102EF0004F925F926F927F928F929F92AF92BF920A
:102F0000CF92DF92EF92FF920F931F93CF93DF93B5
:102F1000CDB7DEB7A0970FB6F894DEBF0FBECDBF1A
:102F20007C018B0119821A82DC018C91882309F4BF
:102F3000C7C013969C91911127C0807601F18FE252
:102F4000FB018083118299249394892DA0960FB65A
:102F5000F894DEBF0FBECDBFDF91CF911F910F91CF
:102F6000FF90EF90DF90CF90BF90AF909F908F90A9
:102F70007F906F905F904F903F902F900895C70182
:102F80000E94800C982EE1CFF70180859185A28563
:102F9000B385668177819E012F5F3F4F590100976E
:102FA000A105B10509F072C0C9010E94C4108823AF
:102FB00009F486C066246394712CD12CC12C28019D
:102FC000F3E64F0E511CD70113968C91139786157B
:102FD00008F476C014964D915C914619570970E03B
:102FE00060E085E0440F551F661F771F8A95D1F773
:102FF000C5010E94360D982E882309F461C060E057
:10300000C5010E948A13FC01892B09F459C08385EC
:103010008F3009F055C080818F71681251C0A801AE
:103020004C0D5D1D1F01960160E0D1016530F0F58A
:1030300011968D919C91009799F024363105D0F42A
:103040008F37910510F08FE390E02F5F3F4FDA014B
:103050008D93AD016F5FB2E02B0E311C6D3029F7FF
:103060002436310538F4808186FF04C0200F311FDB
:10307000D9011C92D2011C92BDE0CB0ED11C2FEFC6
:10308000621A720A808186FF9ECF5FCF2CE1F50124
:1030900011922A95E9F720E1298321E02B83788793
:1030A0006F838D8F9E8FAF8FB8A384CF6B3020F44A
:1030B00014968D919C91BFCF16968D919C91BBCF0C
:1030C000D8011C92912C41CF0F931F93CF93DF9384
:1030D00000D000D0CDB7DEB7AB01BC0185EA94E0EB
:1030E0000E94360D882309F440C044E050E0BE0140
:1030F0006F5F7F4F85EA94E00E94711284309105E2
:10310000A1F44091490350914A0360914B0370919F
:103110004C034C5F5F4F6F4F7F4F40934903509379
:103120004A0360934B0370934C034B815C8170E0C6
:1031300060E0BA015527442709811A8130E020E078
:10314000402B512B622B732B4093BB015093BC013E
:103150006093BD017093BE010F900F900F900F9080
:10316000DF91CF911F910F91089590E080E0DDCF26
:10317000CF93DF9300D01F92CDB7DEB7AB01BC0178
:1031800085EA94E00E94360D8823C1F143E050E0C7
:10319000BE016F5F7F4F85EA94E00E947112833019
:1031A0009105A1F44091490350914A0360914B036A
:1031B00070914C034D5F5F4F6F4F7F4F40934903BA
:1031C00050934A0360934B0370934C034A815B8195
:1031D00070E060E0762F652F542F44272981422B21
:1031E0004093BB015093BC016093BD017093BE013D
:1031F0000F900F900F90DF91CF91089590E080E0B5
:10320000E5CFCF93DF9300D0CDB7DEB7AB01BC01E4
:1032100085EA94E00E94360D882359F142E050E09F
:10322000BE016F5F7F4F85EA94E00E947112823089
:103230009105A1F44091490350914A0360914B03D9
:1032400070914C034E5F5F4F6F4F7F4F4093490328
:1032500050934A0360934B0370934C0329813A8146
:103260003093BA012093B9010F900F90DF91CF9165
:10327000089590E080E0F2CFCF93DF931F92CDB717
:10328000DEB7AB01BC0185EA94E00E94360D8823CD
:1032900039F141E050E0BE016F5F7F4F85EA94E075
:1032A0000E94711281309105A1F44091490350911F
:1032B0004A0360914B0370914C034F5F5F4F6F4F18
:1032C0007F4F4093490350934A0360934B0370939D
:1032D0004C0329812093B8010F90DF91CF9108957D
:1032E00090E080E0F6CF8091B0018111ACC0609198
:1032F000490370914A0380914B0390914C030E94C3
:103300003C1920914003019709F06DC08091B801EC
:103310008093AF018091AB019091AC01A091AD0180
:10332000B091AE01253009F056C02FEF2093AF01C8
:1033300024E0209340034091490350914A03609157
:103340004B0370914C03415051096109710940933D
:10335000490350934A0360934B0370934C030296C6
:10336000A11DB11D8093AB019093AC01A093AD0161
:10337000B093AE019091AF018091AA01892780930B
:10338000AA018091AB019091AC01A091AD01B091E7
:10339000AE01892B8A2B8B2B09F044C08091490305
:1033A00090914A03A0914B03B0914C030197A1095E
:1033B000B1098093490390934A03A0934B03B093C0
:1033C0004C038091A8019091A901892B41F481E0DF
:1033D0008093480308950197A109B109C3CF85E0FF
:1033E000809347030895243021F081E080934503C2
:1033F000E8CF8091AA018093AF018091AB019091B9
:10340000AC01A091AD01B091AE010196A11DB11D1D
:103410008093AB019093AC01A093AD01B093AE014A
:10342000109240038091AB019091AC01A091AD014D
:10343000B091AE010197A105B10529F188E0809313
:10344000B0011092A7018091AF0187FF1FC080914A
:10345000A5019091A60190930601809305018091AA
:10346000A7018F5F8093A701823061F48091AF0143
:10347000880F8093AF018091B00181508093B0019B
:103480001092A701089580910201D9CF8091A301E4
:103490009091A401E0CF80914703833071F128F42B
:1034A000813049F08230F9F00895843081F185301F
:1034B00009F495C0089580919C0190919D0190938D
:1034C00006018093050180919A0190919B010197DB
:1034D00090939B0180939A01892B09F098C082E018
:1034E000809347030895809198019091990190935A
:1034F00006018093050183E0F3CF809196019091BE
:103500009701909306018093050184E0E9CF8091B3
:1035100040039CEF980F923010F0811102C00C9480
:1035200073198091B00181112DC080913F038331C7
:1035300049F48091AA018093AF0182E08093400317
:1035400085E0CECF8F5F80933F03843108F03FC08A
:10355000E82FF0E0E25FFB4FE491E093AF018D30A4
:1035600089F58091BF0383508093AF019091AF01A3
:103570008091AA0189278093AA0188E08093B001F5
:103580001092A7018091AF0187FF24C08091A5010F
:103590009091A60190930601809305018091A70167
:1035A0008F5F8093A701823091F58091AF01880FE2
:1035B0008093AF018091B00181508093B00110924F
:1035C000A70108958E3091F68091C003CDCF8091F0
:1035D0000201D4CF8091A3019091A401DBCF20916F
:1035E00041038091A8019091A9012E3F89F02B3FC2
:1035F00079F090939F0180939E0189E58093410328
:1036000080914503813019F48FEF80934103089531
:103610009068909306018093050110924703F0CFC4
:103620008091B00181113FC06091490370914A03BC
:1036300080914B0390914C030E943C19019709F033
:103640004AC08091B8018093AF018091AB01909105
:10365000AC01A091AD01B091AE010197A109B109F2
:103660008093AB019093AC01A093AD01B093AE01F8
:103670001092A201892B8A2B8B2B81F481E08093FD
:10368000A1018091A8019091A901892B21F486E0E4
:103690008093480303C085E0809347038BE08093C9
:1036A000B0011092A7018091B001823039F480916D
:1036B000A001811103C081E08093B0018091B0012D
:1036C0002091A3013091A4018B3039F4309306018D
:1036D0002093050116C085E0DBCF8091B0018230D8
:1036E00009F044C08091A00181709091A2018917D6
:1036F000D1F19091A5018091A6019093050180934D
:1037000006018091A7018F5F8093A7014091050179
:103710005091060142175307D9F590910101891381
:103720004AC08091B001823058F08091B0018B3056
:1037300038F48091AF0190E0959587958093AF0123
:103740008091B00181508093B0011092A7018091C7
:10375000A101882381F18091B00181112CC085E005
:10376000809348030895922F832FC7CF8091B00193
:10377000813049F48091A5019091A60190930601B2
:1037800080930501BECF8091AF0180FDF3CF9ECF26
:103790009091000189130FC08091B001823080F2B6
:1037A0008091B0018B3060F68091A20191E0892771
:1037B0008093A201BECF08958091B001811128C0ED
:1037C0006091490370914A0380914B0390914C039F
:1037D0000E943C190197F1F48091B8018093AF01E8
:1037E0008091AB019091AC01A091AD01B091AE017F
:1037F0000197A109B1098093AB019093AC01A0930B
:10380000AD01B093AE0189E08093B0011092A701A1
:103810000C949E0E8091A8019091A90190939F0114
:1038200080939E0189E580934103EDCFCF92DF9293
:10383000EF92FF920F931F93CF93DF93C8E9D4E0E9
:1038400086E9C82E84E0D82E0C81F0909804E09090
:10385000990418E0602F661F6627661F8E2D0E9450
:10386000FB05000F61E08F2D0E94FB0560E08F2DAE
:103870000E94FB05115071F72197CC16DD0621F748
:1038800061E080919A040E94FB0560E080919A04B7
:10389000DF91CF911F910F91FF90EF90DF90CF902C
:1038A0000C94FB05EF92FF920F931F93CF93DF933E
:1038B000CDB7DEB761970FB6F894DEBF0FBECDBFB0
:1038C0002091380440913904CE01019630E0442320
:1038D00091F14EE34983FC0150E040E003ED13E039
:1038E000D8010D900020E9F7A45DB340B901640F41
:1038F000751F6A177B07E8F46D527C4FDB016C91F2
:1039000061834F5F5F4F31964F30510549F7198AF8
:1039100061E070E00E942A1061960FB6F894DEBF55
:103920000FBECDBFDF91CF911F910F91FF90EF9010
:1039300008951182E6CFFC0150E040E003ED13E072
:103940007901E81AF90AD8010D900020E9F7BD01C4
:10395000645D7340D701AE0FBF1FA617B70770F4A1
:10396000DA01A20FB31FAD52BC4F6C9160834F5F61
:103970005F4F31964031510531F7C9CF1082F7CFF3
:10398000CF93DF938091D2038130D9F480918A0460
:1039900090918B040E944310C1E0D0E080918A0492
:1039A00090918B042091140130911501C217D30717
:1039B00044F40E94E71685EA94E00E94F70D2196F0
:1039C000EDCFC0918A04D0918B0480911401909125
:1039D0001501019719F4CE010E944310CE010E94F7
:1039E000E71663ED73E085EA94E00E947617809114
:1039F000A504882341F0807609F446C08FE28093C5
:103A0000C5031092C6038091BD049091BE04A0919D
:103A1000BF04B091C0048093C1039093C203A093EC
:103A2000C303B093C40303969093C0038093BF0372
:103A30008091A504807779F565E471E085EC93E0E9
:103A40000E941638892B39F11092390485EA94E0E6
:103A50000E94F70D1092AF038091390464E678E07C
:103A6000813011F066E578E08FEA93E00E946735D7
:103A700070E060E08FEA93E00E942A101092380410
:103A8000DF91CF910C94521C65EC73E085EA94E0D1
:103A90000E94800CB8CF81E080933904D7CF85EDA8
:103AA0008093BC008091620490916304A0916404AF
:103AB000B09165040796A11DB11D23E0B695A795A9
:103AC000979587952A95D1F72091BC0024FD03C0D6
:103AD00010926004089540916204509163046091D3
:103AE000640470916504452B462B472B69F30097BE
:103AF000A105B10541F025E32A95F1F700000197F2
:103B0000A109B109E1CF809161040C940307809170
:103B100037024AE06FEA73E090E00E94A53561E861
:103B200070E08FEA93E00E94673550E040E068E083
:103B300070E08FEA93E00E94D70F6AE471E08FEAA9
:103B400093E00E941F3820914E0330914F03C9012A
:103B500068EE73E00E94DB378A30910590F4C9016A
:103B60006AE070E00E94DB374AE061EB73E00E949C
:103B7000A53550E040E06DE070E08FEA93E00C94F2
:103B8000D70F4AE060EB73E08436910580F36FEA6B
:103B900073E0EDCF0F931F93CF93DF93EC018B0175
:103BA00040E150E060E770E08AE791E00E94723502
:103BB00040E150E0BE01012B01F589E691E00E9451
:103BC000723550E040E070E060E08AE791E00E94EA
:103BD000D70F50E040E070E060E089E691E00E949D
:103BE000D70F41E050E070E060E088E591E0DF91C0
:103BF000CF911F910F910C94D70F88E591E00E940F
:103C0000723541E050E0DFCF0E94F10E8091A703B2
:103C1000813041F470E060E088E690E00E94CA1DC7
:103C20001092A7030895CF92DF92EF92FF920F9325
:103C30001F93CF93DF93CDB7DEB72B970FB6F894D2
:103C4000DEBF0FBECDBF109206011092050180911C
:103C50004803811134C040E050E0BA0185EA94E0A5
:103C60000E94360D882309F465C14AE050E0BE0188
:103C70006F5F7F4F85EA94E00E94711247E050E049
:103C800062EA73E0CE0101960E945A35892B41F019
:103C900061E070E086E993E00E94CA1D0E94F10E87
:103CA0008AE090E0A0E0B0E08093490390934A035B
:103CB000A0934B03B0934C0381E080934803809121
:103CC0004803833081F540E050E0BA0185EA94E092
:103CD0000E94360D882309F434C148E050E0BE014B
:103CE0006F5F7F4F85EA94E00E94711248E050E0D8
:103CF00068EC73E0CE0101960E945A35892B41F0A1
:103D000061E070E08CEB93E00E94CA1D0E94F10E0E
:103D10001092490310924A0310924B0310924C03E5
:103D200082E080934803809148038430A1F540E00D
:103D300050E0BA0185EA94E00E94360D882309F428
:103D400007C149E050E0BE016F5F7F4F85EA94E014
:103D50000E94711249E050E060EF73E0CE010196DD
:103D60000E945A35892B41F061E070E083EE93E0C8
:103D70000E94CA1D0E94F10E8CE090E0A0E0B0E02D
:103D80008093490390934A03A0934B03B0934C0351
:103D900085E08093480380914803853009F092C004
:103DA0006091490370914A0380914B0390914C03B9
:103DB0000E940119029709F0D7C00091B901109132
:103DC000BA01109395010093940160914903709199
:103DD0004A0380914B0390914C030E94641804970E
:103DE00009F0C2C08091BB019091BC01A091BD01BE
:103DF000B091BE018093AB019093AC01A093AD0153
:103E0000B093AE011092A00104301140F1F5039778
:103E1000A109B1098093AB019093AC01A093AD01CE
:103E2000B093AE016091490370914A0380914B03B6
:103E300090914C036F5F7F4F8F4F9F4F609349036B
:103E400070934A0380934B0390934C030E943C1958
:103E5000019741F48091B8018F3409F080C082E06D
:103E60008093A0018091490390914A03A0914B0354
:103E7000B0914C030196A11DB11D8093490390930D
:103E80004A03A0934B03B0934C03809152038111DA
:103E900072C080EA91E09093A4018093A30180ED29
:103EA00090E09093A6018093A5011092A101109239
:103EB000B0011092A70186E0809348031092470357
:103EC0001092930180914803863009F0EDC0209153
:103ED000940130919501223141E0340709F4C7C1C2
:103EE00008F086C0243041E0340709F4DBC008F054
:103EF0004BC02115314009F4D5C080914903909100
:103F00004A03A0914B03B0914C034091AB015091F7
:103F1000AC016091AD017091AE01840F951FA61F99
:103F2000B71F8093490390934A03A0934B03B09328
:103F30004C03BCC170E060E083E893E00E94CA1DBE
:103F4000AFCE70E060E089EA93E00E94CA1DE0CE47
:103F500070E060E080ED93E00E94CA1D0DCF8534D3
:103F600009F080CF81E07CCF8FEF9FEF9093950198
:103F7000809394018ACF8DE491E09093A401809383
:103F8000A30186EA90E08DCF203181E0380709F463
:103F900008C12131314009F0B0CF109193018091D7
:103FA0004703811131C16091490370914A038091A7
:103FB0004B0390914C030E940119029791F4809158
:103FC000B9019091BA01880F991F880F991F90939A
:103FD0009B0180939A0180ED90E090939D018093E6
:103FE0009C0181E0809347031F5F109393015CC0A5
:103FF0006091490370914A0380914B0390914C0367
:10400000263141E0340709F455C150F524313140DF
:1040100009F073CF0E9401190297F9F48091B90158
:104020009091BA01880F991F880F991F90939B0157
:1040300080939A018091490390914A03A0914B0388
:10404000B0914C030297A109B10980934903909361
:104050004A03A0934B03B0934C030E94DA0E4DCF5A
:10406000273141E0340709F450C12F3F3F4F09F099
:1040700044CF0091AB011091AC012091AD01309182
:10408000AE01DC01CB01800F911FA21FB31F8093F3
:10409000490390934A03A0934B03B0934C030E94AF
:1040A000041E54C30E94101B809148038130D1F438
:1040B0006091490370914A0380914B0390914C03A6
:1040C0000E943C19019709F038C18091B801809392
:1040D00041031092B0011092A70182E0809348033F
:1040E0001092470380914803823009F02FC38091DA
:1040F00041038A3209F4D0C508F0C6C1853109F4FC
:1041000086C408F097C1823109F4FAC308F017C1D8
:10411000803109F495C2813109F427C370E060E071
:1041200089E094E00E94CA1D8091410340E16FEA5A
:1041300073E090E00E94A53550E040E064E070E05C
:104140008FEA93E00E94D70F40E16FEA73E080911D
:10415000490390914A030E94A53562E074E08FEA1A
:1041600093E00E94673561E070E08FEA93E00E947F
:104170002A104AE06FEA73E08091900190919101DA
:104180000E94A53541E050E06AE070E08FEA93E0DC
:104190000E94D70F68E873E180E090E00E947F06FC
:1041A0007ECF8091470381115FC060914903709178
:1041B0004A0380914B0390914C030E94011902978E
:1041C000B1F480915203811116C08091B901909190
:1041D000BA01880F991F880F991F90939B018093B4
:1041E0009A0180ED90E090939D0180939C0181E085
:1041F0008093470359CF80E491E090939B01809393
:104200009A0186EA90E0EFCF1130D9F40E94DA0EDD
:1042100080919A0190919B01892B09F045CF86E00E
:10422000809348038AEA8093AF0181E08093A101E3
:104230008AE08093B0011092A70182E080939301FD
:1042400033CF123071F41092A0010E94101B8091A4
:10425000B001811129CF86E0809348031092470373
:1042600023CF133009F03ECF0E94DA0E1DCF6091AC
:10427000490370914A0380914B0390914C030E9433
:104280000119029709F02ECF8091B9019091BA01DE
:10429000009761F090939F0180939E0129E5209300
:1042A00041039068909306018093050185E0809317
:1042B0004803FACE0E946418049709F013CF809146
:1042C000BB019091BC019093BA018093B9016091B8
:1042D000B9017091BA018091BB019091BC010E941B
:1042E0000B377093BA016093B90161157105F1F252
:1042F00070939F0160939E0129E5209341037068AC
:104300007093060160930501D1CF0E9401190297B5
:1043100009F0E8CE8091B9019091BA018C329140B8
:1043200039F488E08093010180E180930001BECFE1
:1043300082E08093010184E0F8CF8FEFC8CE833113
:1043400009F422C3843109F0E9CE80914703811139
:104350004AC36091490370914A0380914B03909145
:104360004C030E940119029751F48091B901909178
:10437000BA010E940A0F9093A4018093A301609157
:10438000490370914A0380914B0390914C030E9422
:104390000119029751F48091B9019091BA010E94DC
:1043A0000A0F9093A6018093A50160914903709133
:1043B0004A0380914B0390914C030E943C19019752
:1043C00021F48091B80180930201609149037091BA
:1043D0004A0380914B0390914C030E94011902976C
:1043E00041F48091B9019091BA019093A901809311
:1043F000A8016091490370914A0380914B03909109
:104400004C030E94B818039709F0D2C28091BB01F7
:104410009091BC01A091BD01B091BE010196A11D7A
:10442000B11D8093AB019093AC01A093AD01B0930B
:10443000AE01BEC28132B9F1D0F4893109F4ACC306
:10444000803209F06BCE6091490370914A038091EC
:104450004B0390914C030E940119029709F076C119
:104460008091B9019091BA01009751F0C5C2843290
:1044700009F4CFC3853209F4F2C3823209F04ECE7B
:1044800081E08093480362C18B3409F469C408F069
:104490005BC0813309F418C408F58B3209F408C4F1
:1044A000803309F03BCE6091490370914A038091BB
:1044B0004B0390914C030E943C19019709F72091FE
:1044C000B8018091490390914A03A0914B03B091A8
:1044D0004C03820F911DA11DB11DD5C3833309F477
:1044E0001CC408F4FCC3853309F018CE609149035D
:1044F00070914A0380914B0390914C03605F7F4F12
:104500008F4F9F4F6093490370934A0380934B03EF
:1045100090934C030E946418049709F0B1CF8091E6
:10452000490390914A03A0914B03B0914C034091F1
:10453000BB015091BC016091BD017091BE01840F1F
:10454000951FA61FB71F9FC38C3F09F4CDC508F068
:1045500063C0893509F4D3C58B3F09F0DFCD809165
:1045600047038111F1C088EE93E09093A9018093F5
:10457000A80190913F0320E83FE1992311F028E939
:104580003CE030939B0120939A012BE632E030937C
:104590009D0120939C012FEB30E0309399012093F3
:1045A000980122ED30E0309397012093960124EF9B
:1045B00030E03093A4012093A30129EE31E0309341
:1045C000A6012093A50181E080934703911102C0C9
:1045D0008093400380914003823009F0AEC0109276
:1045E000AA011092490310924A0310924B031092B1
:1045F0004C038091BF039091C0030296B0E0A0E00D
:104600008093AB019093AC01A093AD01B093AE0148
:1046100085E08093400391C08E3F09F4FCC408F408
:1046200036C580910801882309F439CD2FEF3FE783
:10463000309306012093050181508093080186C0C4
:1046400080914703811180C06091490370914A03B2
:1046500080914B0390914C030E940119029741F401
:104660008091B9019091BA019093A9018093A8011A
:104670006091490370914A0380914B0390914C03E0
:104680000E940119029779F48091B9019091BA01C1
:104690000196B0E0A0E08093AB019093AC01A093B1
:1046A000AD01B093AE016091490370914A038091CE
:1046B0004B0390914C030E943C190197E9F48091BF
:1046C000B80181113EC08FE79FE190939B018093D9
:1046D0009A018091490390914A03A0914B03B091B4
:1046E0004C030197A109B1098093490390934A03B0
:1046F000A0934B03B0934C038BE692E090939D0103
:1047000080939C018FEB90E09093990180939801A6
:1047100082ED90E0909397018093960184EF90E072
:104720009093A4018093A30189EE91E09093A60158
:104730008093A50181E08093470388E08093020184
:1047400005C087E99CE0C1CF0E944B1A2B960FB69B
:10475000F894DEBF0FBECDBFDF91CF911F910F91B7
:10476000FF90EF90DF90CF900895809147038111E3
:10477000EBCF6091490370914A0380914B03909174
:104780004C030E940119029751F48091B901909154
:10479000BA010E940A0F90939D0180939C01609141
:1047A000490370914A0380914B0390914C030E94FE
:1047B0000119029751F48091B9019091BA010E94B8
:1047C0000A0F909399018093980160914903709129
:1047D0004A0380914B0390914C030E940119029768
:1047E00051F48091B9019091BA010E940A0F9093FF
:1047F0009701809396016091490370914A038091DB
:104800004B0390914C030E940119029751F480913F
:10481000B9019091BA010E940A0F9093A40180936C
:10482000A3016091490370914A0380914B039091D9
:104830004C030E940119029751F48091B9019091A3
:10484000BA010E940A0F9093A6018093A50160917E
:10485000490370914A0380914B0390914C030E944D
:104860000119029741F48091B9019091BA01909396
:104870009B0180939A016091490370914A03809152
:104880004B0390914C030E943C19019721F48091B5
:10489000B801809302016091490370914A038091AD
:1048A0004B0390914C030E940119029741F48091AF
:1048B000B9019091BA019093A9018093A8016091E8
:1048C000490370914A0380914B0390914C030E94DD
:1048D000B818039799F48091BB019091BC01A09105
:1048E000BD01B091BE010196A11DB11D8093AB0128
:1048F0009093AC01A093AD01B093AE0181E059C09B
:104900008091470381112BC06091490370914A0344
:1049100080914B0390914C030E940119029751F42E
:104920008091B9019091BA010E940A0F90939D0164
:1049300080939C016091490370914A0380914B03DD
:1049400090914C030E9401190297C1F68091B90120
:104950009091BA0190939B0180939A01CFCF80915F
:104960009C0190919D019093060180930501809197
:104970009A0190919B01019790939B0180939A01DA
:10498000892B09F47DCDE2CE6091490370914A03F1
:1049900080914B0390914C032091470321110CC04F
:1049A0000E943C19019721F48091B80180939201F3
:1049B00084E080934703CACE0E940119029751F404
:1049C0008091B9019091BA010E940A0F909306015B
:1049D00080930501809192018150809392018823F8
:1049E00009F44ECDB3CE843079F0853009F0AECEE7
:1049F0008091A8019091A90190939F0180939E01BD
:104A000089E580934103A2CE0E9473199FCE8091C5
:104A1000470381113CC06091490370914A03809122
:104A20004B0390914C030E940119029751F480911D
:104A3000B9019091BA010E940A0F9093B20180933C
:104A4000B1016091490370914A0380914B039091A9
:104A50004C030E940119029741F48091B901909191
:104A6000BA019093A9018093A801609149037091C4
:104A70004A0380914B0390914C030E943C1901978B
:104A800009F0B7CC8091B80180930201B2CC0091BB
:104A9000B1011091B2019801306430930601209366
:104AA0000501843009F0A1CFFF24F394F092B30103
:104AB0008091B00181114FC06091490370914A0308
:104AC00080914B0390914C030E943C190197B9F5DA
:104AD0008091B8018093AF018091AB019091AC01BE
:104AE000A091AD01B091AE010197A109B1098093E8
:104AF000AB019093AC01A093AD01B093AE010097D0
:104B0000A105B105F9F48091490390914A03A09160
:104B10004B03B0914C030197A109B109809349035C
:104B200090934A03A0934B03B0934C038091A80148
:104B30009091A901892B09F4A3CC85E03ACFF0929A
:104B40004503F4CF0197A105B10519F188E08093E1
:104B5000B0011092A7018091AF0187FF05C01066D8
:104B600010930601009305018091A7018E5F809349
:104B7000A701823009F0EACD8091AF01880F8093C0
:104B8000AF018091B00181508093B0011092A701D4
:104B9000DDCD80910201DBCF80914703882331F086
:104BA000843009F0D3CD0E94DC1BD0CD6091490345
:104BB00070914A0380914B0390914C030E946418BA
:104BC0006091490370914A0380914B0390914C038B
:104BD0000E940119029741F48091B9019091BA01A4
:104BE0009093A9018093A8018091490390914A0371
:104BF000A0914B03B0914C038A5A9F4FAF4FBF4FC8
:104C00008093490390934A03A0934B03B0934C03C2
:104C1000CFCE6091490370914A0380914B039091EC
:104C20004C030E940119029709F02ACC8091B90126
:104C30009091BA01909391018093900180914903E2
:104C400090914A03A0914B03B0914C0380938C0147
:104C500090938D01A0938E01B0938F0111CC809120
:104C6000900190919101019790939101809390010F
:104C7000892B09F405CC80918C0190918D01A09134
:104C80008E01B0918F018093490390934A03A093C2
:104C90004B03B0934C03F4CB8091490390914A03AA
:104CA000A0914B03B0914C030496A11DB11DEBCF15
:104CB0008091490390914A03A0914B03B0914C031A
:104CC0000596A11DB11DDFCF6091490370914A0384
:104CD00080914B0390914C030E943C19E4CB60916E
:104CE000490370914A0380914B0390914C030E94B9
:104CF0000119029709F0C4CB2091B9013091BA0192
:104D00008091490390914A03A0914B03B0914C03C9
:104D1000820F931FA11DB11DB6CF60914903709101
:104D20004A0380914B0390914C030E943C190197D8
:104D300009F0A6CB2091B80130E0A3E0B0E00E94DA
:104D40001D360091490310914A0320914B03309185
:104D50004C03DC01CB01800F911FA21FB31F93CF27
:104D600080914703813009F4BFC028F1843009F0F5
:104D70003CCE8091B001882309F41BC19091B00111
:104D80008091A7018F5F9B3009F0C5C02091A301DE
:104D90003091A40130930601209305018093A7016F
:104DA000823009F0C9C08091B00181508093B00178
:104DB0001092A701C1C06091490370914A0380918C
:104DC0004B0390914C030E946418049799F48091CE
:104DD000BB019091BC01A091BD01B091BE010C97A7
:104DE000A109B1098093AB019093AC01A093AD01EF
:104DF000B093AE016091490370914A0380914B03D7
:104E000090914C030E940119029741F48091B901DD
:104E10009091BA019093A9018093A80180E197E253
:104E200090939B0180939A018091490390914A034A
:104E3000A0914B03B0914C030A96A11DB11D809324
:104E4000490390934A03A0934B03B0934C03809182
:104E50000A0190910B01803649E0940759F1ACF4B6
:104E6000803B944009F04ACD80ED90E09093A601FC
:104E70008093A50190939D0180939C0181EA91E02C
:104E80009093A4018093A30139CD80312EE0920745
:104E9000F1F0803B9E4009F031CD83E490E09093A7
:104EA000A6018093A50190939D0180939C0185E8C4
:104EB00090E0E6CF88E690E09093A6018093A5016C
:104EC00090939D0180939C0181ED90E0D9CF85E482
:104ED00090E09093A6018093A50190939D0180930B
:104EE0009C018BE890E0CCCF80919A0190919B013E
:104EF0009C012150310930939B0120939A01892B09
:104F000009F456CD80919C0190919D0190930601EA
:104F1000809305011BCC9091B001933038F520911E
:104F2000A5013091A60130930601209305018093DD
:104F3000A701843009F437CF8091AB019091AC0187
:104F4000A091AD01B091AE01892B8A2B8B2B09F07A
:104F5000FDCB8091B0018111F9CB8091A801909196
:104F6000A90190939F0180939E01E7CD9091AF019D
:104F7000492F41702091A5013091A60190FD04C0F8
:104F80002091A3013091A4013093060120930501E3
:104F90008093A701442351F0843071F68091AF01D2
:104FA00090E0959587958093AF01FDCE823021F6F4
:104FB000F5CF8091B0018111BFCFC090AB01D090EF
:104FC000AC01E090AD01F090AE01C114D104E10458
:104FD000F10409F4BECF6091490370914A038091B6
:104FE0004B0390914C030E943C19019709F0B4C007
:104FF00081E0C81AD108E108F108C092AB01D09253
:10500000AC01E092AD01F092AE018091B8018093C5
:10501000AF018BE0CBCE80914703811195CB88EE19
:1050200093E09093A9018093A80160914903709146
:105030004A0380914B0390914C030E9401190297FF
:1050400079F48091B9019091BA010196B0E0A0E0A5
:105050008093AB019093AC01A093AD01B093AE01EE
:105060006091490370914A0380914B0390914C03E6
:105070000E943C19019709F03FCB8091B801811142
:1050800003C080E89FE121CB88E99CE01ECB8091A2
:105090004703813059F008F083CD88E893E190937D
:1050A000A9018093A80110928B0128CC8091B001B6
:1050B000811117C0E0918B01F0E0E750FC4FE491C3
:1050C000E093AF0180918B018F5F80938B01809182
:1050D0008B018A3009F46CCC89E08093B001109286
:1050E000A7010E949E0E32CB80914703811158CDBB
:1050F00088E893E19093A9018093A80159CC80910D
:105100009E0190919F010097F9F08D3620E2920761
:1051100090F02CE630E230930601209305018C5686
:10512000904290939F0180939E0180910501909100
:1051300006019068EBCE90930601809305011092D2
:105140009F0110929E01F1CF81E0809348038091EE
:105150004503813009F0FACA8FEF53CC1F920F92AA
:105160000FB60F9211242F933F938F939F93AF937A
:10517000BF938091240290912502A0912602B091C4
:1051800027023091230223E0230F2D3758F5019693
:10519000A11DB11D20932302809324029093250228
:1051A000A0932602B09327028091280290912902B1
:1051B000A0912A02B0912B020196A11DB11D8093EE
:1051C000280290932902A0932A02B0932B02BF9148
:1051D000AF919F918F913F912F910F900FBE0F90A4
:1051E0001F90189526E8230F0296A11DB11DD2CF5E
:1051F0001F920F920FB60F9211242F933F934F934C
:105200005F936F937F938F939F93AF93BF93EF932E
:10521000FF938091B900887F803609F44AC0F0F589
:10522000883209F4A7C018F5803109F49BC0B8F49E
:10523000882309F4F9C0883009F494C0FF91EF91F4
:10524000BF91AF919F918F917F916F915F914F919E
:105250003F912F910F900FBE0F901F90189588319E
:1052600009F488C0803251F780935E0414C0803402
:1052700009F49DC040F48033B9F38833F9F6809384
:105280005E0485ECB0C0803509F485C0883509F42A
:1052900096C0883499F60E944F1DD0CF883909F402
:1052A0008CC038F5883729F050F4883611F08037F3
:1052B00029F683E0809360041092220257C0883858
:1052C00009F47BC0803919F0803809F0B7CF80919C
:1052D0002202803208F071C0E091220281E08E0F3C
:1052E000809322028091BB00F0E0EE5FFD4F80834F
:1052F0003DC0803B39F0E0F4803A09F479C0883A47
:1053000009F09CCF84E08093600410920102109217
:105310000002E0912E02F0912F0209958091000287
:1053200081110FC081E0809300021092E00109C05A
:10533000803C09F4A6CF883C09F4A3CF883B09F050
:105340007DCFE091010281E08E0F80930102F0E0B9
:10535000E052FE4F80818093BB00909101028091CA
:10536000000229C080913B048093BB0085EC8093B0
:10537000BC0064CF90915D0480915C04981758F54F
:10538000E0915D0481E08E0F80935D04F0E0E45CC9
:10539000FB4F8081E9CFE0915D0481E08E0F809327
:1053A0005D048091BB00F0E0E45CFB4F8083909152
:1053B0005D0480915C049817C8F285E8D8CFE0912D
:1053C0005D0481E08E0F80935D048091BB00F0E06E
:1053D000E45CFB4F808380915F0481115CCF81E0AE
:1053E00080933A0484EA8093BC001092600426CF34
:1053F00085EC8093BC001092600480912202803280
:1054000030F4E0912202F0E0EE5FFD4F10826091F7
:10541000220270E0E0912C02F0912D0282E092E0F5
:105420000995109222020ACF10925E0434CF1F9287
:105430000F920FB60F9211242F933F934F935F93C8
:105440006F937F938F939F93AF93BF93EF93FF934C
:10545000E0910301F09104010995FF91EF91BF9153
:10546000AF919F918F917F916F915F914F913F91FC
:105470002F910F900FBE0F901F901895ECE8F4E05D
:105480001382128288EE93E0A0E0B0E084839583DB
:10549000A683B7838AE191E0918380831092CA0446
:1054A0001092EC061092ED0684E680930C071092A1
:1054B000110780E58093120710921307E1EAF4E0E8
:1054C00014821582138212828CE291E09183808390
:1054D0000E94B2066854744F8F4F9F4F60939D0493
:1054E00070939E0480939F049093A004E8E9F4E0F5
:1054F00084E0808388E0818382E0828361E084E0CD
:105500000E94290661E088E00E94290661E082E0AD
:105510000E94290660E084E00E94FB0560E088E0CC
:105520000E94FB0560E082E00E94FB0510929C0453
:1055300010929B040C94161CCF93DF93CDB7DEB76B
:10554000A4970FB6F894DEBF0FBECDBF789484B594
:10555000826084BD84B5816084BD85B5826085BD6F
:1055600085B5816085BD80916E00816080936E00FD
:1055700010928100809181008260809381008091EF
:1055800081008160809381008091800081608093A0
:1055900080008091B10084608093B1008091B00060
:1055A00081608093B00080917A00846080937A005B
:1055B00080917A00826080937A0080917A00816085
:1055C00080937A0080917A00806880937A001092AC
:1055D000C10068EE73E080E090E00E947F061092C8
:1055E00031021092300210926704109289040E94D6
:1055F000E50687EA95E090932F0280932E0288EAD1
:1056000095E090932D0280932C028EEA0E948F0FDA
:1056100085ED0E948F0F80E80E948F0F88EA0E941C
:105620008F0F8FE10E948F0F83ED0E948F0F80E01C
:105630000E948F0F80E40E948F0F8DE80E948F0FD1
:1056400084E10E948F0F80E20E948F0F82E00E940F
:105650008F0F81EA0E948F0F88EC0E948F0F8AEDD6
:105660000E948F0F82E00E948F0F81E80E948F0FAF
:105670008FEC0E948F0F89ED0E948F0F81EF0E94A7
:105680008F0F8BED0E948F0F80E40E948F0F8EE2B0
:105690000E948F0F84EA0E948F0F86EA0E948F0F6C
:1056A0008FEA0E948F0F0E94C30FF12CE12C10E0B3
:1056B000612F80E00E94A80FB12CA12C9701265BDE
:1056C0003B4F6901F601EA0DFB1D84910E94510FC9
:1056D0003FEFA31AB30A40E8A416B10499F71F5F7D
:1056E00050E8E50EF11C143019F76CED75E080E020
:1056F00090E00E947F068EEA0E948F0F0E94C30FE7
:105700008FEA0E948F0F61E08AE00E9429061092C2
:105710000F0710920C071092110782E197E0909307
:105720000E0780930D070E94B2068B01E0900D07D3
:10573000F0900E078AE0F701828361E00E9429065B
:1057400061E0F70182810E94FB05FFB6F894809129
:105750003202811127C0E2E7F6E08491EEE5F6E03F
:105760009491E82FF0E0EE0FFF1FE65BF94FA59153
:10577000B491EC91E92321F461E08AE00E94FB05F9
:1057800061E08AE00E9429068CB580618CBD8CB5F1
:1057900080648CBD61E08DE00E94290661E08BE0B1
:1057A0000E942906809132028F5F80933202FFBEF1
:1057B000E0910D07F0910E0782E5808311828091C0
:1057C0000F07811104C08CE097E00E949208E091DD
:1057D0000D07F0910E0761E082810E94FB052AE02F
:1057E000F22E8FEF0E94A608FA94F110FACFE09102
:1057F0000D07F0910E0760E082810E94FB059AE0A0
:10580000F92E20E030E0A90160E08CE097E00E94F2
:10581000E208E82EF1E08F1709F474C1FA94F11050
:1058200063C180E280930C078CE097E00E94CD0872
:1058300070E060E087E896E00E94CA1D812C912C00
:1058400054018394F0EB4F2EF4E05F2E6AE0662E55
:10585000712C74E6E72EF12C0E94B2060091AB0386
:105860001091AC032091AD033091AE03601B710B1E
:10587000820B930B009110011091110120911201E4
:1058800030911301061717072807390708F044C09D
:105890001091AA0313FB442740F949A31AA2E9A1D6
:1058A000FAA1E856FB4F812F8770A501940104C02F
:1058B000220F331F441F551F8A95D2F7C9018095C7
:1058C0009381892383830E94161C8091A803180F5B
:1058D0001093AA0313FB332730F93BA31CA2EBA1BF
:1058E000FCA1E856FB4F1770D501C40104C0880F16
:1058F000991FAA1FBB1F1A95D2F72381822B83837E
:105900000E94161C0E94B2066093AB037093AC0316
:105910008093AD039093AE038091A703813009F08B
:10592000DDC2F8948091070180933A02109207013A
:105930008091A20380934D03789480913A02813044
:1059400021F41092390210923A0280913902813486
:1059500008F02AC20E94131E809105019091060151
:10596000892BE9F0F8942091390230E0E091380277
:1059700081E0E8278091050190910601220F331FF5
:10598000E20FF32FF11DEE0FFF1FE55CFD4F91833A
:1059900080837894809139028F5F809339020E94CE
:1059A000B20600919D0410919E0420919F043091B5
:1059B000A004601771078207930708F441C0809123
:1059C000A70381113DC003ED13E0F8010190002011
:1059D000E9F7CF01845D9340409790F10E94B206B1
:1059E00066507F4F8F4F9F4F60939D0470939E042E
:1059F00080939F049093A0040E94521C80913804CD
:105A00008F5F80933804F80101900020E9F78F013F
:105A1000045D13408017110699F090F0109238043D
:105A20000E94B2066854744F8F4F9F4F60939D043D
:105A300070939E0480939F049093A0040E94521C34
:105A400086E00E94D20580930F010E94B206009169
:105A5000A3031091A4032091A5033091A603601B1A
:105A6000710B820B930B633371058105910508F46B
:105A7000DDC70E94B2066093A3037093A4038093D2
:105A8000A5039093A60381E10E94D2058C01892B86
:105A900009F081C38091A703811164C38091390407
:105AA000813009F044C265E471E083ED93E00E9427
:105AB0001638892B09F017C21092A1031092A00387
:105AC00081E00E94DE100E944E1781E090E09093EA
:105AD0001501809314010E94C01C68EC70E080E006
